:020000040800F2
:1000000000800120755C0008C15C0008C51E000866
:10001000CD1E0008D51E0008DD1E000800000000EF
:10002000000000000000000000000000752700082C
:10003000C15C0008000000000B2800081B28000815
:10004000C15C0008C15C0008C15C0008C15C00081C
:10005000C15C0008C15C0008C15C0008C15C00080C
:10006000C15C0008C15C0008C15C0008C15C0008FC
:10007000C15C0008C15C0008C15C0008C15C0008EC
:10008000C15C0008C15C0008C15C00080000000001
:10009000000000000000000000000000C15C00083B
:1000A000C15C0008C15C0008C15C0008C15C0008BC
:1000B000C15C0008C15C0008C15C0008C15C0008AC
:1000C000C15C0008C15C0008C15C0008C15C00089C
:1000D000C15C0008C15C0008C15C000800000000B1
:1000E000C15C0008C15C0008C15C000800000000A1
:1000F000000000000000000000000000C15C0008DB
:1001000000000000C15C0008C15C0008C15C000880
:1001100000000000000000000000000000000000DF
:10012000C15C0008C15C0008C15C0008C15C00083B
:10013000C15C00080000000000000000000000009A
:10014000000000000000000000000000C15C00088A
:10015000C15C0008C15C0008C15C0008C15C00080B
:10016000C15C0008C15C0008000000000000000045
:10017000000000000000000000000000000000007F
:1001800000000000C15C000800000000000000004A
:10019000C15C000810B5054C237833B9044B13B18A
:1001A0000448AFF300800123237010BD080D002028
:1001B00000000000A4F8000808B5034B1BB1034978
:1001C0000348AFF3008008BD000000000C0D0020C4
:1001D000A4F80008154B002B08BF134B9D46A3F550
:1001E000803A00218B460F461348144A121A08F031
:1001F0004DFF0F4B002B00D098470E4B002B00D02B
:1002000098470020002104000D000D48002802D06E
:100210000C4801F04DFD08F077FA2000290002F0AB
:1002200023F901F03BFD00BF000008000080012021
:100230000000000029250008080D0020D827002014
:10024000B11C00080000000008B54FF07E5001F01E
:10025000D7FDFAE782B001900091009B184602B0EA
:10026000704700B583B00190019BDB68002B04D080
:10027000019BDB689B6801989847019B184603B077
:100280005DF804FB00B583B001900091009B002B4A
:1002900005D110220021019808F0F8FE04E06B4619
:1002A0001946019800F006F8019B184603B05DF866
:1002B00004FB000000B583B00190009110220021E2
:1002C000019808F0E3FE019B19460420FFF7C2FFE6
:1002D0000346002B02D0009A12681A60019B034A61
:1002E000DA6000BF03B05DF804FB00BF7CE70008E4
:1002F00000B583B001900091019B1B68009898475E
:1003000000BF03B05DF804FB00B583B0019000911D
:10031000019B19460420FFF79DFF0346002B02D0E6
:10032000009A12681A6000BF03B05DF804FB82B047
:10033000019000BF02B0704700B583B00190019BEF
:10034000143300211846FFF79DFF019B184603B0A8
:100350005DF804FB00B583B00190019B143318468F
:10036000FFF77FFF019B184603B05DF804FB30B533
:1003700083B00190019B01241D46002C05DB28461B
:1003800000F01EF82C35013CF7E7019B00229A652E
:10039000019B0022DA65019B002283F86020019B0B
:1003A000184603B030BD00B583B00190019B043303
:1003B0001846FFF7CFFF019B184603B05DF804FB1A
:1003C00000B583B00190019B00221A60019B0433A9
:1003D00028220021184608F059FE019B04331846D4
:1003E000FFF7AAFF019B184603B05DF804FB00006D
:1003F00000B583B001900091019B012B0CD1009BB3
:100400004FF6FF72934207D10548FFF7B0FF054A48
:100410000549034801F03AFC00BF03B05DF804FB56
:10042000240D0020980100202D04000810B582B092
:100430000190019B002B0AD0019B03F15804019B02
:100440009C4204D02C3C2046FFF7ADFFF7E7019B10
:10045000184602B010BD08B54FF6FF710120FFF736
:10046000C7FF08BD00B585B0039002910192039BC0
:100470001B6810331B68019A02990398984703463A
:10048000184605B05DF804FB00B583B00190019BF0
:100490001B6818331B68019898470346184603B039
:1004A0005DF804FB00B583B00190019B1B68283305
:1004B0001B68019898470346184603B05DF804FB93
:1004C00082B001900B468DF803304FF0FF33184691
:1004D00002B0704782B001900B46ADF80230112394
:1004E000184602B0704782B00190009100BF02B080
:1004F0007047000000B583B00190054A019B1A6067
:10050000019800F045F8019B184603B05DF804FB24
:10051000E4E8000800B583B001900198FFF7EAFF16
:10052000019801F03DFC019B184603B05DF804FB07
:1005300000B583B00190019B1B6810331B6801223A
:100540000021019898470346184603B05DF804FB64
:1005500000B583B00190019B1B6810331B6800221B
:1005600000210198984700BF03B05DF804FB00002C
:1005700000B583B00190019800F010F8034A019B88
:100580001A60019B184603B05DF804FBE4E800081C
:1005900082B00190019B184602B0704782B0019072
:1005A000019B184602B0704782B0EFF310830193AD
:1005B000019B03F00103002B0CBF01230023DBB2DE
:1005C000184602B07047000000B583B0FFF7ECFF9B
:1005D00003468DF8073072B6084B1B78DBB2002B50
:1005E00007D1074A9DF807301370044B01221A7097
:1005F00000E000BF03B05DF804FB00BF890D0020E0
:10060000880D002008B5FFF7CFFF0346002B04D06C
:1006100036220749074800F077FD074B00221A7081
:10062000064B1B78DBB2002B00D062B600BF08BDC2
:1006300088E70008B4E70008890D0020880D002035
:1006400082B001900091009B002B05D0019B9B681C
:10065000019A12681A6005E0019B1A68019BDB6829
:1006600012041A6000BF02B0704700B585B0039055
:1006700001930B46ADF80A3013468DF80930BDF9E9
:100680000A301946039806F0E9FCBDF90A30B3F1C7
:10069000FF3F0DD001990398FFF7D2FF0121039886
:1006A00006F035FD9DF809301946039806F01CFD4B
:1006B00000BF05B05DF804FB00B583B001900B46A8
:1006C000ADF80230BDF9023000221946019800F061
:1006D00004F800BF03B05DF804FB00B585B00390DB
:1006E0000B460192ADF80A30BDF90A10019B0022B9
:1006F0000398FFF7BAFF00BF05B05DF804FB0000E8
:1007000000B583B003460091ADF80630BDF9063060
:10071000B3F1FF3F23D018E0009BB3F90030BDF9DF
:1007200006209A420ED1009B9A68BDF90630114608
:10073000184606F075FFBDF906300021184606F090
:10074000FDFF0DE0009B0C330093009BB3F90030DC
:10075000B3F1FF3FE0D1044800F01CFE00E000BF11
:1007600003B05DF804FB00BFD0E7000800B583B01C
:1007700001900091019A009B9A4201D1019B10E0E7
:10078000019BB3F1FF3F01D1009B0AE0009BB3F155
:10079000FF3F01D1019B04E0044800F0FBFD4FF056
:1007A000FF33184603B05DF804FB00BFE4E7000820
:1007B00082B003460091ADF806300CE0009BB3F91F
:1007C0000030BDF906209A4202D1009B5B680AE026
:1007D000009B0C330093009BB3F90030B3F1FF3F53
:1007E000ECD14FF0FF33184602B0704700B585B02A
:1007F00003460091ADF806304FF0FF330393BDF987
:100800000630B3F1FF3F02D14FF0FF330EE0BDF9E8
:10081000063000991846FFF7CBFF0390039BB3F116
:10082000FF3F02D1034800F0B5FD039B184605B019
:100830005DF804FBF8E7000808B500F02FFD094B50
:100840001B884FF6FF72934204D100F041FD064829
:1008500000F0A0FD0121034800F050FD00F038FD3C
:1008600000BF08BD8A0D002038E8000808B500F078
:1008700015FD084B1B88002B04D100F029FD06480C
:1008800000F088FD0121034800F05EFD00F020FD2E
:1008900000BF08BD8A0D002068E8000808B500F018
:1008A000FDFC07F0E1F900F013FD00BF08BD0000FA
:1008B0002DE9F04989B00190019B5B6893F83830CD
:1008C000002B40F0C980019B1B681B689847019B67
:1008D0001B689B6998470590059B1B680793059BC0
:1008E0001B68002B06D129225D495E4800F00CFCF4
:1008F0005D4B0793059B5B680693059B5B68202B0C
:1009000003D8059B5B68032B06D82F225449554812
:1009100000F0FAFB20230693069B043B072202FA11
:1009200003F30493049B1F464FF000083B464446E4
:100930004FF000014FF00002620142EAD362590118
:100940000B461446DB1B64EB08044FF000014FF02C
:100950000002620242EAD35259020B461446DB19E6
:1009600044EB08044FF0000B4FF0000C4FEA841CDE
:100970004CEA936C4FEA831BBBEB030B6CEB040C50
:100980001BEB07014CEB0802079B1F464FF00008CA
:100990007B1848EB020413F1FF3044F1FF31079B51
:1009A0004FF000041A4623460DF05CFD03460C464A
:1009B000CDE90234019B5B6800221A60019B5B68F1
:1009C00000225A60019B1B685B68019A5468984733
:1009D00003462362019B5A684FF000034FF0000466
:1009E000C2E90A34019B5B68079A9A604FF00103E1
:1009F0004FF00004069AA2F12000C2F1200104FA8F
:100A000002F603FA00F0064323FA01F10E4303FA5B
:100A100002F52A46019B5B68013ADA60019B5B683C
:100A2000049A1A61019B5A68DDE90234C2E906346E
:100A3000019B5A684FF000034FF00004C2E90C34E8
:100A4000019B5B68012283F83820019800F00EF8C2
:100A5000019800F0EFF900E000BF09B0BDE8F089AF
:100A600090E80008B4E8000840420F002DE9704803
:100A70008DB00190019B5B680993019B1B685B68CB
:100A800098470890019B5B681B6A089A9A4200F09D
:100A90002181099B1B6A089AD21A099BDB681340C3
:100AA0004FF00004CDE90634099B089A1A62099BAD
:100AB0009B688A4A934204D1DDE90634CDE90A34C1
:100AC000FCE0099B9B68B3F5004F78D1DDE9065641
:100AD0002B4634464FF000014FF00002620142EA1B
:100AE000D36259010B4614465B1B64EB06044FF0BE
:100AF00000014FF00002620242EAD35259020B4653
:100B000014465B1944EB06044FF000014FF000025D
:100B1000A20142EA93629901C91A62EB04024B19DD
:100B200042EB0604CDE90234DDE902124FF0000386
:100B30004FF00004CB0B43EA4243D40BCDE90A3417
:100B4000099BD3E90A56DDE90A124FF000034FF082
:100B50000004D40344EA5144CB03DDE90212C91A6C
:100B600062EB04028B4694461BEB05034CEB060438
:100B7000099AC2E90A34099BD3E90A12099B9B68C6
:100B80004FF00004A24208BF9942C0F09780DDE90F
:100B90000A34591C44F10002CDE90A12099BD3E939
:100BA0000A12099B9B681D464FF000060B4614462F
:100BB0005B1B64EB0604099AC2E90A347EE0DDE9B6
:100BC00006562B4634464FF000014FF000026201FA
:100BD00042EAD36259010B4614465B1B64EB0604E0
:100BE0004FF000014FF00002620242EAD352590274
:100BF0000B4614465B1944EB06044FF000014FF01E
:100C00000002A20142EA93629901C91A62EB04024E
:100C10004B1942EB0604CDE90434099B9B684FF065
:100C200000041A462346DDE904010DF01BFC0346CF
:100C30000C46CDE90A34099BD3E90A12099B9B684B
:100C40004FF000040A9804FB00F50B9803FB00F03A
:100C500028440A9DA5FB033420440446DDE90456DC
:100C6000ED1A66EB0406AB46B4461BEB01034CEBF6
:100C70000204099AC2E90A34099BD3E90A12099BC2
:100C80009B684FF00004A24208BF994216D3DDE9E9
:100C90000A34591C44F10002CDE90A12099BD3E938
:100CA0000A12099B9B681D464FF000060B4614462E
:100CB0005B1B64EB0604099AC2E90A34099BD3E979
:100CC0000C12DDE90A345D1844EB0206099AC2E908
:100CD0000C5600E000BF0DB0BDE8708840420F0028
:100CE0002DE9104889B00390CDE90023039B5B6890
:100CF0000693069BD3E90CBCDDE900120B461446B3
:100D0000B3EB0B0364EB0C04CDE90434039B5B6889
:100D10001B690793039B5B68D3E90612DDE9043482
:100D2000A24208BF994255D3069B9B682F4A934223
:100D30000CD1049B0793039B5B681B69079A9A423B
:100D400048D9039B5B681B69079343E0069B9B683C
:100D5000B3F5004F1CD1DDE904344FF000004FF033
:100D60000001E10341EA5341D803204A4FF0000358
:100D70000DF078FB03460C460793039B5B681B69E9
:100D8000079A9A4226D9039B5B681B69079321E067
:100D9000069B9B684FF00004049A04FB02F1059A3D
:100DA00003FB02F20A440499A1FB030153181946FC
:100DB0000E4A4FF000030DF055FB03460C46079317
:100DC000039B5B681B69079A9A4203D9039B5B6884
:100DD0001B690793069B1A6A079B1A44069BDB68EC
:100DE0001340184609B0BDE8108800BF40420F000C
:100DF00084B0039002910192019A039B9A420BD90D
:100E0000029A019B9A4203D2029A039B9A4201D210
:100E100001230CE000230AE0029A039B9A4205D2C8
:100E2000029A019B9A4201D3012300E00023184655
:100E300004B0704710B58AB00190019B5B680993BC
:100E40000198FFF713FE019B5B685B68002B42D0A3
:100E5000019B5B68D3E90C34CDE90634019B5B68E8
:100E60005B68D3E90034CDE90434DDE90434DDE91D
:100E70000612A24208BF994204D3019B1B685B691A
:100E8000984736E0DDE904230198FFF729FF039036
:100E9000099B1B6A039A9A4204D1019B1B685B69F8
:100EA000984726E0019B1B681B6903989847019BA4
:100EB0001B685B6898470290099B1B6A039A02991A
:100EC0001846FFF795FF0346002B12D0019B1B68C5
:100ED0005B6998470DE0099B1A6A099B1B691A44D4
:100EE000099BDB6813400893019B1B681B690898EA
:100EF00098470AB010BD10B584B0019000F0CEF94B
:100F0000019B1B68DB689847019B5B685B68002B53
:100F100027D00198FFF7AAFD019B5B685B68D3E9C6
:100F20000034019A5268D2E90C12A24208BF9942D9
:100F300019D3019B5B685B680393019B5B685A68EC
:100F4000019B5B68D2685A60019B5B681B68002B41
:100F5000DAD0019B5B681B68039A92681046984739
:100F6000D2E700BF00E000BF0198FFF763FF00F089
:100F7000AFF900BF04B010BD10B582B00190019868
:100F800000F005F803460C46184602B010BD10B537
:100F900082B001900198FFF78BFC00F07FF9019877
:100FA000FFF764FD00F094F9019B5B68D3E90C3412
:100FB0001846214602B010BD014B1846704700BFCD
:100FC000D4E8000808B5054B1B68002B03D0034B81
:100FD0001B680348984700BF08BD00BF9C01002064
:100FE000D4E8000882B001900023184602B0704790
:100FF00082B001900023184602B0704700B585B05A
:101000000190019B1B6810331B680122002101988D
:1010100098470390039B002B01DA039B11E0019B8F
:101020001B6810331B680222002101989847029028
:10103000019B1B6810331B68002203990198984795
:10104000029B184605B05DF804FB00B583B07346FB
:10105000019000911A460099019800F005F80346A6
:10106000184603B05DF804FB00B587B00390029109
:101070000192002305930299039807F0FFFB059066
:10108000059B184607B05DF804FB00B587B00390D8
:101090000291019200230593019A0299039808F0A6
:1010A0003FF80590059B184607B05DF804FB00B5B6
:1010B00083B07346019000911A460099019800F0A0
:1010C00004F800BF03B05DF804FB00B585B00390E1
:1010D000029101920299039807F066F800BF05B0EB
:1010E0005DF804FB00B587B00390029101920023E4
:1010F0000593019A0299039806F014FE0590059B4A
:10110000184607B05DF804FB00B585B00390029166
:10111000019200F0C3F8019B029A0399044800F081
:101120005CF800F01CF800BF05B05DF804FB00BFE0
:1011300028E9000882B001900091009B002B05D0A7
:10114000019B9B68019A12681A6005E0019B1A686E
:10115000019BDB6812041A6000BF02B0704700B543
:101160008BB000F09BF801AB05211846FFF7A4FAFD
:101170000023099312E001AB01211846FFF7DAFFC3
:10118000962000F053FE01AB00211846FFF7D2FF76
:10119000962000F04BFE099B01330993099B032B1A
:1011A000E9DD0023089314E001AB01211846FFF7A5
:1011B000C1FF4FF4C87000F039FE01AB00211846A2
:1011C000FFF7B8FF4FF4C87000F030FE089B013302
:1011D0000893089B032BE7DDCAE70FB400B583B083
:1011E00005AB01930199049800F006F800BF03B025
:1011F0005DF804EB04B0704700B5A5B00190009114
:1012000000F04CF802A8009B019A80210AF04CFFE4
:101210002290229B002B1ADD104B1B68002B04D15F
:10122000032202210E4806F011FB002323930AE05B
:1012300002AA239B13441B781946094805F006FEB1
:10124000239B01332393239A229B9A42F0DB00F0E5
:101250003FF800BF25B05DF804FB00BFD0140020AC
:101260002827002082B0EFF310830193019B03F045
:101270000103002B0CBF01230023DBB2184602B090
:10128000704782B0EFF305830193019B002B14BFDD
:1012900001230023DBB2184602B0704708B5094BA2
:1012A0001B68B3F1FF3F04D1552207490748FFF7F8
:1012B0002BFFFFF789F9034B1B680133014A1360C9
:1012C00000BF08BDD00D00205CE9000880E90008DF
:1012D00008B5094B1B68002B0BD0074B1B68013B63
:1012E000054A1360044B1B68002B03D1FFF78AF9F2
:1012F00000E000BF08BD00BFD00D002088B0019005
:101300000B46ADF80230019B0493049BD3E85F3F8A
:101310000393039B9AB2BDF802301344ADF81E301C
:10132000BDF81E30ADF81C30019B0693BDF81C20A3
:101330000699C1E8532F0593059B002BE3D1BDF817
:101340001E30184608B0704788B001900B46ADF8C3
:101350000230019B0493049BD3E85F3F0393039BFC
:101360009AB2BDF80230D31AADF81E30BDF81E3067
:10137000ADF81C30019B0693BDF81C200699C1E80E
:10138000532F0593059B002BE3D1BDF81E30184663
:1013900008B070470FB400B583B00B4B1B78002B1F
:1013A0000BD1094B01221A7005AB019301990498E6
:1013B000FFF722FF012000F071FC00BF03B05DF8D1
:1013C00004EB04B0704700BFD40D002008B5044BF7
:1013D0001B684FF0FF31184603F0C8F800BF08BD86
:1013E000E025002008B5034B1B68184603F0F2F80F
:1013F00000BF08BDE025002084B003900291019257
:101400006FF01C03184604B0704782B001906FF073
:101410001503184602B0704782B0019001231846A8
:1014200002B0704782B001900023184602B07047A6
:1014300000B585B0039001930B46ADF80A30134612
:10144000ADF80830039B1846FFF792F80C4A039B4F
:101450001A600C4B1B68002B0CD1BDF90820BDF99C
:101460000A301946084806F0F1F90199064806F0D5
:1014700013FB00E000BF039B184605B05DF804FBBA
:1014800058EB0008D01400202827002000B587B0B2
:10149000039002910192029B049300230593059A05
:1014A000019B9A420BD2049A059B13441B78194660
:1014B000054805F0CBFC059B01330593EFE7019B45
:1014C000184607B05DF804FB2827002000B587B058
:1014D000039002910192029B0593019B002B01D185
:1014E000002307E0054805F093FC0346DAB2059BAC
:1014F0001A700123184607B05DF804FB2827002066
:1015000000B585B001900B46ADF802300023ADF870
:101510000E30BDF8023003F00103002B07D017484E
:1015200006F0D4FA0346002B01D0012300E000238B
:10153000002B05D0BDF80E3043F00103ADF80E309E
:10154000BDF8023003F01003002B07D00B4806F063
:10155000E9FA0346002B01D0012300E00023002B11
:1015600005D0BDF80E3043F01003ADF80E30BDF9D4
:101570000E30184605B05DF804FB00BF2827002098
:1015800082B001900023184602B0704782B00190EB
:101590000023184602B0704708B5154B1B78BFF3FF
:1015A0005B8FDBB203F00103002B0CBF0123002390
:1015B000DBB2002B19D00E4800F094FB0346002B41
:1015C00014BF01230023DBB2002B0ED04FF41653BF
:1015D000032202210748FFF72BFF054800F0B8FB64
:1015E000054A0649034800F051FB024B184608BD66
:1015F000640E0020600E002098010020C11D00082C
:1016000000B585B001900198FFF7C0FF0390039BE0
:10161000002B01D0039B0BE00198FFF7B1FF039073
:10162000039B002B01D0039B02E0FFF7B5FF0346AD
:10163000184605B05DF804FB00B585B00190019B2C
:101640003F2B01DD002315E00C4A019B52F82330AB
:101650000393039BB3F1FF3F0BD1019B022B08DCEB
:101660000198FFF7CDFF03900449019B039A41F8CD
:101670002320039B184605B05DF804FBA001002061
:1016800000B583B00190019800F006F803461846B3
:1016900003B05DF804FB000000B585B0019001982F
:1016A000FFF7CAFF0390144A019B002142F8231060
:1016B000039B002B07D106F069FB02460923136048
:1016C0004FF0FF3313E0039B1B6814331B68039830
:1016D00098470290029B002B08DA06F057FB02465F
:1016E000029B5B4213604FF0FF3300E0002318467B
:1016F00005B05DF804FB00BFA001002082B001909E
:101700000023184602B0704700B58BB003900291D9
:1017100001920093FFF7B5FD0346002B07D1FFF7B9
:10172000A1FD034683F00103DBB2002B01D00123AE
:1017300000E00023002B02D04F48FFF72BFE019B57
:10174000002B07DA06F022FB0246162313604FF047
:10175000FF338DE0019B0693002309930398FFF765
:10176000CDFF0346002B56D0444A039B13441B78FD
:101770008DF8233000230793079A069B9A424ADA92
:10178000079B029A13441B780A2B3AD19DF8233009
:101790000D2B36D0079A099B9A421EDD099B029AAF
:1017A000D118079A099BD31A1A46039800F06AF8D1
:1017B0000590059B002B02DA4FF0FF3358E0099AA1
:1017C000059B13440993099A079B9A424ADB2B4ACB
:1017D000039B13449DF823201A7001222849039883
:1017E00000F050F80590059B002B02DA4FF0FF3314
:1017F0003EE0059B002B37DD204A039B13440D225E
:101800001A70079B029A13441B788DF82330079BAC
:1018100001330793B0E7099A069B9A4226DA099B9F
:10182000029AD118069A099BD31A1A46039800F017
:1018300029F80490049B002B02DA4FF0FF3317E0E5
:10184000099A049B13440993099B002B0FDD099B04
:10185000013B029A13441978084A039B13440A4631
:101860001A7004E000BF02E000BF00E000BF099B67
:1018700018460BB05DF804FBB4E90008200E002008
:10188000F0E9000800B587B0039002910192039837
:10189000FFF7D2FE0590059B002B07D106F076FAE4
:1018A0000246092313604FF0FF3315E0059B1B68C8
:1018B0000C331B68019A0299059898470490049B81
:1018C000002B08DA06F062FA0246049B5B421360C2
:1018D0004FF0FF3300E0049B184607B05DF804FBAF
:1018E00000B589B00390029101920093FFF7C9FC03
:1018F0000346002B07D1FFF7B5FC034683F0010335
:10190000DBB2002B01D0012300E00023002B02D02A
:101910003E48FFF73FFD019B002B07DA06F036FA41
:101920000246162313604FF0FF336BE0002307934A
:101930000398FFF7E3FE0346002B5CD00DF117037D
:1019400001221946039800F065F80690069B002BCB
:1019500002DA4FF0FF3355E0069B002B01D1079BC5
:1019600050E09DF817300D2B05D1294A039B1344F5
:101970001B780A2B09D19DF817300A2B10D1244A65
:10198000039B13441B780D2B0AD09DF81710204A97
:10199000039B13440A461A70029B0A221A7027E01E
:1019A0009DF817300D2B05D1194A039B13441B7862
:1019B0000A2B09D09DF817300A2B0DD1144A039B2E
:1019C00013441B780D2B07D19DF81710104A039B69
:1019D00013440A461A70B1E79DF817100C4A039B8E
:1019E00013440A461A709DF81720029B1A7000BF14
:1019F0000123079305E0019A0299039800F00AF881
:101A00000790079B184609B05DF804FBF4E900084D
:101A1000E00D002000B587B0039002910192039879
:101A2000FFF70AFE0590059B002B07D106F0AEF9E3
:101A30000246092313604FF0FF3315E0059B1B6836
:101A400008331B68019A0299059898470490049BF3
:101A5000002B08DA06F09AF90246049B5B421360F9
:101A60004FF0FF3300E0049B184607B05DF804FB1D
:101A700000B583B00190019800F005F803461846C0
:101A800003B05DF804FB00B585B001900198FFF745
:101A9000D3FD0390039B002B06D106F077F9024695
:101AA00009231360002312E0039B1B681C331B688F
:101AB000039898470290029B002B07DA06F066F91C
:101AC0000246029B5B421360002300E0029B184623
:101AD00005B05DF804FB00B587B003900291019258
:101AE000019A0299039800F006F80590059B1846A4
:101AF00007B05DF804FB00B587B003900291019236
:101B00000398FFF799FD0590059B002B07D106F080
:101B10003DF90246092313604FF0FF3315E0059BA2
:101B20001B6810331B68019A029905989847049026
:101B3000049B002B08DA06F029F90246049B5B425D
:101B400013604FF0FF3300E0049B184607B05DF8C8
:101B500004FB00B583B0019000910099019800F05A
:101B600005F80346184603B05DF804FB00B585B0E0
:101B7000019000910198FFF75FFD0390039B002BFC
:101B800007D106F003F90246092313604FF0FF3333
:101B900019E0039B1B681C331B6803989847034696
:101BA000002B02D04FF4005201E04FF40042009BA2
:101BB0005A60039B1B6828331B68039898470246AA
:101BC000009B1A610023184605B05DF804FB08B5B8
:101BD000012000F063F8000010B485B001901B4BA9
:101BE0001B680393194B1A68019B13440293EFF38C
:101BF00008831C4623461A46029B93422CBF0123AE
:101C00000023DBB2002B05D0114B0C221A604FF0E1
:101C1000FF3315E00F4B1B68002B0DD00E4B1A68DD
:101C20000C4B1B681344029A9A4205D3084B0C22B2
:101C30001A604FF0FF3303E0044A029B1360039BDA
:101C4000184605B05DF8044B704700BFA0020020A5
:101C5000D4270020DC0D0020D80D002000B583B073
:101C60000190094B1B689B68184606F0D5F9064B96
:101C70001B68DB68184606F0CFF9019B002B01D0EA
:101C8000FFF76DFAFEE700BF5403002084B0039015
:101C9000029101920123184604B0704700B583B049
:101CA00001900198FFF7DAFF00BF03B05DF804FB75
:101CB00082B001900123184602B0704700B583B08E
:101CC0000190019800F03EFC00BF03B05DF804FBFA
:101CD00000B583B00190019800F044FC00BF03B050
:101CE0005DF804FB00B585B00190019B0393039B55
:101CF0001B7803F00303012B01D100231FE0FFF742
:101D000065FB039B1B7803F00303012B03D1FFF753
:101D100069FB002313E0039B1B7803F00303002BF4
:101D200005D040F2275208490848FFF7EDF9039B18
:101D30001B7843F00203DAB2039B1A7001231846A2
:101D400005B05DF804FB00BF3CEA000864EA000847
:101D500000B585B00190019B0393039B1B7803F0B2
:101D60000303022B05D040F22F520B490B48FFF71B
:101D7000CBF9039B1B785BB223F003035BB243F008
:101D800001035BB2DAB2039B1A70FFF72BFB00BFB3
:101D900005B05DF804FB00BF3CEA00088CEA0008CF
:101DA00000B583B00190019806F060FD00BF03B05C
:101DB0005DF804FB014B1846704700BF48EB000874
:101DC00000B583B00190064A019B1A60019B18463A
:101DD000FEF790FB019B184603B05DF804FB00BFC3
:101DE00058EB000800B583B001900198FFF7E8FFB9
:101DF0000198FFF7D5FF019B184603B05DF804FB7F
:101E000000B583B00190DDED017A9FED077A67EEB2
:101E1000877AFDEEE77A17EE900A00F017F800BF18
:101E200003B05DF804FB00BF0024744900B583B023
:101E30000190019B4FF47A7202FB03F3184600F005
:101E400005F800BF03B05DF804FB000000B587B0E3
:101E50000190FFF7B1F805900598FFF78DF8049011
:101E6000019B174A82FB03129211DB17D31A0393CB
:101E7000039B002B06DDFFF7F5F90346002B01D08D
:101E8000012300E00023002B07D0FEF7D5FC039BC5
:101E9000184603F0DFFDFEF7E9FC0598FFF76CF844
:101EA0000246049BD21A019B9A4234BF01230023AD
:101EB000DBB2002B00D0F0E700BF07B05DF804FBF9
:101EC000D34D62104FF0100300F00CB84FF0200318
:101ED00000F008B84FF0300300F004B84FF04003B2
:101EE00000F000B8EFF308804FF0040172460A4298
:101EF00001D0EFF309809C46244902680A6004314E
:101F000042680A60043182680A600431C2680A606B
:101F10000431F0C147460F6004314F460F60043171
:101F200057460F6004315F460F60043102690A6052
:101F3000083142690A60043182690A600431C26969
:101F40000A600431034620334FF40076324200D059
:101F5000043375464FF01006354200D148330C4625
:101F6000103C2360EFF309820A600431EFF308822A
:101F70000A60043172460A600431EFF314820A6089
:101F8000034B60460149034A9847FEE708150020C5
:101F9000991F0008A802002000B587B003900291A5
:101FA000019200F047F90021314800F053F9039BFA
:101FB000202B0ED0202B02D8102B05D018E0302B70
:101FC0000CD0402B0FD013E000212A4800F042F93A
:101FD00013E00021284800F03DF90EE000212748D9
:101FE00000F038F909E00021254800F033F904E059
:101FF0000021244800F02EF900BF0021224800F003
:1020000029F900F04FF80021204800F023F9019B46
:102010005B69184600F0F0F800211D4800F01AF93D
:10202000019B9B69184600F0E7F80021194800F071
:1020300011F9019B1B6B0593059800F0CBF800216B
:10204000154800F007F9019BDB6A0593059800F03D
:10205000C1F80021114800F0FDF8019B9B6A05932F
:10206000059800F0B7F800210D4800F0F3F8FEE7FE
:102070009CEB0008C8EB0008D4EB0008E4EB000878
:10208000F0EB0008FCEB00080CEC000818EC000872
:1020900030EC000838EC000848EC000858EC000868
:1020A00068EC000800B589B03B493C4800F0D2F824
:1020B0003B493C4800F0CEF801AB00221A605A6060
:1020C0009A60DA601A615A619A61354BDB6A019352
:1020D000334B9B6ADBB20293314B9B6A1B0ADBB228
:1020E00003932F4B9B6A1B0C9BB204932C4B1B6BD3
:1020F00005932B4BDB6B0693294B5B6A079301AB74
:102100001946294800F0A6F8029B03F08003002B33
:1021100003D02649264800F09DF8039B03F0800376
:10212000002B03D02349244800F094F81A4BDB6CB1
:1021300003F00803002B13D00021204800F08AF898
:10214000154B1B6D03F00103002B04D000211C482C
:1021500000F080F80CE000211A4800F07BF807E05E
:102160000021194800F076F80021164800F072F8B6
:10217000094BDB6C03F00403002B04D0002113484F
:1021800000F068F803E00021114800F063F800BF98
:1021900009B05DF804FB00BF0815002088EC0008BA
:1021A00000ED00E034ED000840ED000834ED00E003
:1021B00080ED000838ED00E08CED000898ED000897
:1021C000A8ED0008B8ED0008CCED0008DCED000833
:1021D000E8ED000800B583B0019005E0019800F03B
:1021E0000BF8019B9B680193019B002BF6D100BF6C
:1021F00003B05DF804FB000000B589B00190019BBD
:102200005B780393019BDB6B0493019B5B6B0593F2
:10221000019B1B6B0693019B9B6B079303AB1946BA
:10222000034800F017F800BF09B05DF804FB00BFD9
:10223000F4ED000808B5054B1B68002B04D1032200
:102240000221034805F002FB00BF08BDD0140020A6
:102250002827002000B589B0019000910023079342
:10226000002306930023059302AB00221A605A60F4
:102270001A722EE0079B019A13441B78252B1DD15F
:10228000059B5A1C05929B00009A13441B6802AAE6
:102290001146184600F02AF8072306930AE002AA1E
:1022A000069B13441B7819460F4804F0CFFD069B8C
:1022B000013B0693069B002BF1DA07E0079B019A8E
:1022C00013441B781946084804F0C0FD079B0133EE
:1022D0000793079B019A13441B78002BCAD100BFB8
:1022E00009B05DF804FB00BF2827002010B489B0B6
:1022F00001900091154B03AC0FCB84E80F00002335
:102300000793009B002B1CD00723079315E0079B26
:102310009B000F2202FA03F31A46019B1A40079B07
:102320009B00DA40079B00990B4408A90A4412F865
:10233000142C1A70079B013B0793079B002BE6DACE
:1023400000E000BF09B05DF8044B704724EE0008C0
:1023500082B0134B0193124BC3F1005303F5C0330A
:102360000093009BB3F5806F28BF4FF480630D4A44
:1023700013600C4B1B68009AD31A019A13440A4A43
:102380001360084B1B68009AD31A0093074A009BFE
:102390001360074A019B136000BF02B0704700BF83
:1023A000D82700206C0E0020680E0020DC0D0020D5
:1023B000D80D002084B0104B9B6802934FF000535F
:1023C0000193002303930CE0039B9B00029A1A44A1
:1023D000039B9B0001990B4412681A60039B013315
:1023E0000393039B642BEFDD034B4FF000529A6085
:1023F00000BF04B0704700BF00ED00E000BF7047B1
:1024000000B583B0124B134A1A61114B4FF480523E
:102410005A610F4B4822DA600D4B0F4A9A600C4B01
:1024200018229A610A4B0D4A1A60094A00210C4889
:1024300003F01CF90190019B002B02D10948FEF723
:10244000A9FF00F0F5FD00BF03B05DF804FB00BF7D
:102450002C260020B01500206015002034EE000866
:102460007924000840EE000808B5FFF7C7FFFDF724
:10247000EBFE0346184608BD08B51F4B1F4A1A60FD
:102480001D4B0B225A601C4B1C22DA601A4B1C4A53
:102490009A60194802F02CF802461A4B1A601A4B3F
:1024A0001A4A1A60184B0B225A60174B1C22DA602A
:1024B000154B174A9A60144802F01AF80246154B59
:1024C0001A60154B154A1A60134B0B225A60124BB7
:1024D0001C22DA60104B124A9A600F4802F008F88A
:1024E0000246104B1A6006F00FF900210020FFF79A
:1024F000BBFF00BF08BD00BF1C2600205CEE00082B
:10250000E4250020E0250020D02500206CEE000806
:1025100000260020A8150020502600207CEE000890
:10252000B4250020B025002008B5FFF711FFFFF704
:1025300041FF04F027FF00F011FDFFF761FF00BF2E
:1025400008BD000000B583B00190054B1B684FF03B
:10255000FF31184602F00AF800BF03B05DF804FB33
:10256000A815002000B583B00190044B1B681846E5
:1025700002F030F800BF03B05DF804FBA81500209E
:1025800000B583B0019000F0EDF8FCE700B585B030
:102590000190009103F0F2F80390019B013B042BA2
:1025A00030D801A252F823F0BD250008D12500083B
:1025B000DF250008ED250008F9250008009803F044
:1025C000B3F80346009A01991248FEF7E3FE1FE0B4
:1025D000009B039A01991048FEF7DCFE18E0009B6F
:1025E000039A01990D48FEF7D5FE11E0039A01996F
:1025F0000B48FEF7CFFE0BE0039A01990948FEF75E
:10260000C9FE05E0039A01990748FEF7C3FE00BF23
:10261000FEE700BF88EE0008D8EE000830EF0008A3
:1026200098EF0008F4EF000854F0000882B0019021
:10263000019B0633052B1BD801A252F823F000BFE3
:102640006D26000869260008652600086126000836
:102650005D26000859260008074B0AE0074B08E0F2
:10266000074B06E0074B04E0074B02E0074B00E096
:10267000074B184602B0704790F00008A8F0000819
:10268000DCF00008F4F0000804F100081CF1000878
:1026900038F1000800B583B001900198FFF7C6FF3C
:1026A00003461A4601990348FEF774FE00BF03B0C3
:1026B0005DF804FB40F1000800B583B00190009183
:1026C0000098FFF7B3FF0346009A01990348FEF70D
:1026D00061FE00BF03B05DF804FB00BF58F10008C5
:1026E00000B583B0019000910098FFF79FFF03466B
:1026F000009A01990348FEF74DFE00BF03B05DF854
:1027000004FB00BFA4F1000800B583B00190009164
:10271000009A01990348FEF73DFE00BF03B05DF843
:1027200004FB00BFF0F1000800B583B003F026F809
:102730000190019803F07CF900BF03B05DF804FB41
:1027400008B5FEF7ABF800BF08BD08B5FEF7A6FD5B
:10275000FEF772F8FFF7F4FFFEF788F8FEF7B8FD12
:1027600000BF08BD08B5024B1B689847FBE700BFD8
:10277000A4020020EFF30980816911F8021CB9BBA3
:1027800001B590E80F10E047BDE800508CE8030069
:10279000264B93E80600914208BF704741B91EF0EE
:1027A000100F10D12249086820F0010008600AE0EB
:1027B0002CE9F00F1EF0100F08BF2CED108AC1F8A5
:1027C00038C081F822E002F093FB184B93E8060032
:1027D0001A6092F82210906B61F0FF0E1EF0100F3D
:1027E00008BFB0EC108AB0E8F00F80F3098870479A
:1027F00010B5104A1368994206D852F821400FC804
:10280000A047EFF30984206010BD10B502F02CF84A
:10281000BDE81040EFF3098CBAE710B501F0C2FF34
:10282000BDE81040EFF3098CB2E70000BC020020C5
:1028300034EF00E018F3000800B583B00190019B6D
:10284000002B01D1002304E00199132002F0D8FBF2
:102850000023184603B05DF804FB000000B587B004
:102860000190019800F09BF8EFF305830593059B19
:10287000002B0BD1EFF310830493049B002B05D1A5
:10288000EFF311830393039B002B07D06FF0050137
:102890000020FFF711FF6FF0050307E0019B029393
:1028A0000298044B9C4600DF034600BF184607B061
:1028B0005DF804FB3928000884B00390029101926E
:1028C00000BF04B0704784B003900291019200935E
:1028D00000BF04B0704784B003900291019200BF22
:1028E00004B0704784B0039002910192009300BF3E
:1028F00004B0704782B00190009100BF02B07047F1
:1029000084B003900291019200BF04B0704700BFF1
:10291000704700BF704782B0019000BF02B070479F
:1029200000BF704700BF704784B0039002910192CE
:1029300000BF04B0704782B0019000BF02B0704782
:1029400082B00190009100BF02B0704782B0019048
:1029500000BF02B0704782B0019000BF02B0704764
:1029600082B00190009100BF02B0704782B0019028
:10297000009100BF02B0704782B0019000BF02B06A
:10298000704782B0019000BF02B0704700BF70472F
:1029900084B003900291019200BF04B0704782B0EE
:1029A000019000BF02B0704700BF704782B0019035
:1029B000009100BF02B0704782B0019000BF02B02A
:1029C000704782B0019000BF02B0704782B00190A2
:1029D00000BF02B0704782B00190009100BF02B00A
:1029E000704782B00190009100BF02B0704782B082
:1029F000019000BF02B0704782B00190009100BF0B
:102A000002B0704782B0019000BF02B0704782B040
:102A1000019000BF02B0704782B00190009100BFEA
:102A200002B0704782B0019000BF02B0704782B020
:102A3000019000BF02B0704784B0039002910192F0
:102A400000BF04B0704782B0019000BF02B0704771
:102A500084B003900291009313468DF8073000BFB5
:102A600004B0704784B003900291019200BF04B09B
:102A7000704782B0019000BF02B0704782B00190F1
:102A8000009100BF02B0704782B00190009100BF7A
:102A900002B0704782B00190009100BF02B0704751
:102AA00084B0039002910192009300BF04B070477C
:102AB00084B003900291019200BF04B0704782B0CD
:102AC000019000BF02B0704782B00190009100BF3A
:102AD00002B0704782B00190009100BF02B0704711
:102AE000034BDB681B0A03F007031846704700BF5F
:102AF00000ED00E000B583B0114BFF2283F82220E7
:102B00000F4B93F82230DBB263F0FF03DB43B3FAE1
:102B100083F3C3F120030193FFF7E2FF0090009AD3
:102B2000019B9A4202D3009B01330193FE22019B39
:102B30009A40034BD2B2DA7700BF03B05DF804FBD2
:102B400000ED00E008B5444B1B7A012B03D1FFF7E1
:102B5000E0FE00235BE1404B1B7A002B06D04FF0D8
:102B6000FF30FFF797FD4FF0FF3350E19C2200212B
:102B70003A4806F08BFA3A4B5B6D472B06D86FF05C
:102B80000A00FFF787FD4FF0FF3340E1344BDB686D
:102B9000002B03D0324B1B8A002B06D14FF0FF30A5
:102BA000FFF778FD4FF0FF3331E12D4BDB682A4A08
:102BB000D3652B4B1A8A284BA3F85420284B9B68CB
:102BC000254A1364264BDA6A254B1B6B19461046BF
:102BD00000F07AFA0346002B04D0214BDB6A1E4A30
:102BE000C2F880301E4B5A691D4B9B69194610462E
:102BF00000F06AFA0346002B04D0194B5B69164AB1
:102C0000536704E0144BD3F88030134A5367144BD6
:102C1000DA69134B1B6A1946104600F055FA034651
:102C2000002B04D00E4BDB690B4A936704E00A4B80
:102C3000D3F88030084A9367094B5A6A084B9B6A5D
:102C40001946104600F040FA0346002B0AD0044B08
:102C50005B6A014AD3670AE0A8020020B0020020A4
:102C600078F200086B4BD3F880306A4AD3676A4B1E
:102C70005B6B002B14D0684B586B674B5B6B196810
:102C8000654B5B6B9A68644B5B6BDB6800F07AFBAF
:102C90000346002B04D0604B5B6B5E4AC2F8843065
:102CA0005D4B9B6B002B14D05B4B986B5A4B9B6B13
:102CB0001968594B9B6B9A68574B9B6BDB6800F00C
:102CC00061FB0346002B04D0534B9B6B514AC2F867
:102CD0008830514BDB6B002B14D04F4BD86B4E4BD5
:102CE000DB6B19684C4BDB6B9A684B4BDB6BDB681F
:102CF00000F048FB0346002B04D0474BDB6B454AF2
:102D0000C2F88C30444B1B6C002B14D0424B186C17
:102D1000414B1B6C1968404B1B6C9A683E4B1B6CFB
:102D2000DB6800F02FFB0346002B04D03A4B1B6CF2
:102D3000384AC2F89030384B5B6C002B14D0364BBD
:102D4000586C354B5B6C1968334B5B6C9A68324B33
:102D50005B6CDB6800F016FB0346002B04D02E4BA7
:102D60005B6C2C4AC2F894302B4B9B6C002B14D01C
:102D7000294B986C284B9B6C1968274B9B6C9A6865
:102D8000254B9B6CDB6800F0FDFA0346002B04D05A
:102D9000214B9B6C1F4AC2F898301F4BDB6C002BF9
:102DA00014D01D4BD86C1C4BDB6C19681A4BDB6CB8
:102DB0009A68194BDB6CDB6800F0E4FA0346002BE1
:102DC00004D0154BDB6C134AC2F89C30124B1B6DC0
:102DD000002B14D0104B186D0F4B1B6D19680E4B48
:102DE0001B6D9A680C4B1B6DDB6800F0CBFA034639
:102DF000002B04D0084B1B6D064AC2F8A030FFF729
:102E000079FE044B01221A72FFF783FD0023184656
:102E100008BD00BFA802002078F2000808B5044BE6
:102E20001B7A1846FFF777FD014B1B7A184608BD41
:102E3000A802002000B585B0424B1B7A012B06D0BA
:102E40006FF00600FFF726FC4FF0FF3376E03D4BB6
:102E50009B6A002B14D13C4B9A6D002300213B4808
:102E600002F056F90246374B9A62364B9B6A002BAA
:102E700006D14FF0FF30FFF70DFC4FF0FF335DE060
:102E8000314B5B6E002B18D02E4B9B6C002B14D15A
:102E90002D4BDA6D002300212D4802F039F902464E
:102EA000284B9A64274B9B6C002B06D14FF0FF30C8
:102EB000FFF7F0FB4FF0FF3340E0234B5B68254901
:102EC000184602F05BFD0346002B02D04FF0FF33A3
:102ED00034E002F0A9FD02461A4B1A6102F082FDAD
:102EE0000346002B02D04FF0FF3327E01A4801F0D1
:102EF000DDFD0390039B002B06D14FF0FF30FFF761
:102F0000C9FB4FF0FF3319E0039801F0DDFF0E4BD2
:102F10001B6803F00103002B05D002230293029BE0
:102F200083F3148804E003230193019B83F3148843
:102F3000044B02221A72FFF7F5FC0023184605B075
:102F40005DF804FBA802002078F200088125000843
:102F50000D5900081B280008C402002000B585B0E8
:102F6000FFF7D5FCEFF305830393039B002B0BD1F5
:102F7000EFF310830293029B002B05D1EFF3118333
:102F80000193019B002B06D06FF00500FFF782FB39
:102F90006FF0050314E00C4B9C46EFF3148313F021
:102FA000020F0AD113F0040FEFF308830CBF203B8C
:102FB000683B23F0070383F3098800DF034600BF63
:102FC000184605B05DF804FB452B000800B585B038
:102FD000EFF305830393039B002B0BD1EFF31083D7
:102FE0000293029B002B05D1EFF311830193019B08
:102FF000002B06D04FF0FF30FFF78DFC4FF0FF3372
:1030000010E0EFF314830093009B03F00103002B07
:1030100003D1FFF703FF034604E0044B9C4600DFA7
:10302000034600BF184605B05DF804FB1D2E0008DE
:1030300000B585B0FFF774FCEFF305830393039BA2
:10304000002B0BD1EFF310830293029B002B05D1D1
:10305000EFF311830193019B002B06D06FF0050065
:10306000FFF718FB6FF0050326E0FFF7AFFF0346FD
:10307000022B0CD0124B1B68002B08D0104B1B6886
:103080005B68002B03D00E4B1B685B6898470D4BA9
:103090009C46EFF3148313F0020F0AD113F0040FD0
:1030A000EFF308830CBF203B683B23F0070383F357
:1030B000098800DF034600BF184605B05DF804FB31
:1030C00060260020352E000800B585B001900091E3
:1030D000019B002B0CD0019B03F00703002B07D1B1
:1030E000009B03F00703002B02D1009B172B06D88F
:1030F000002200990198FFF7DFFB00231EE0019BEF
:103100000393039B009A1A60039B10225A60019B51
:1031100008330293019A009B1344083B1A46029B12
:103120001A60029B1B6800221A60029B00225A60F0
:10313000012200990198FFF7BFFB0123184605B053
:103140005DF804FB00B589B0039002910192039BE6
:10315000002B07D0029B002B04D0019B23F003031C
:10316000002B07D00023019A02990398FFF7ABFBCD
:1031700000235BE0029B08330293029B073323F09A
:1031800007030293039B08330793079B1B681A46A8
:10319000079BD31A0593079B5B6823F00303059AEB
:1031A000D31A0593059A029B9A420ED2079B1B687D
:1031B0000793079B1B68002BE7D10023019A029914
:1031C0000398FFF780FB002330E000BF039B5A68A1
:1031D000029B1A44039B5A60079B5B68002B08D133
:1031E000029A019B1A43079B5A60079B0833069378
:1031F00015E0079B5B6823F00302079B13440493CD
:10320000079B1A68049B1A60029A019B1A43049B4D
:103210005A60079B049A1A60049B08330693069B26
:10322000019A02990398FFF74EFB069B184609B0D6
:103230005DF804FB00B587B001900091019B002B65
:1032400002D0009B002B06D1002200990198FFF7C5
:1032500042FB002335E0009B083B039300230493CB
:10326000019B083305930EE0059B0493059B1B68A7
:103270000593059B002B06D1002200990198FFF7CA
:103280002AFB00231DE0059A039B9A42ECD1019B87
:103290005A68059B5B6823F00303D21A019B5A60AE
:1032A000049B002B03D1059B00225A6003E0059B81
:1032B0001A68049B1A60012200990198FFF70BFB22
:1032C0000123184607B05DF804FB10B483B00190E9
:1032D0000091019B009A53E8001F8A4202D8BFF375
:1032E0002F8F04E0481C43E8000404B1F3E70C46C8
:1032F0002346184603B05DF8044B704710B483B002
:103300000190019B53E8002F12B9BFF32F8F04E007
:10331000511E43E8001000B1F4E714462346184656
:1033200003B05DF8044B704710B483B00190019B6B
:1033300053E8002F12B9BFF32F8F04E0116843E860
:10334000001000B1F4E714462346184603B05DF8B8
:10335000044B704710B483B001900091019B009A18
:1033600019681160BFF35F8F53E8001F106888422F
:10337000F6D143E8002404B1F2E700BF03B05DF8E2
:10338000044B704700B587B00390029101920093FF
:10339000039B002B08D0029B002B05D0019B002B28
:1033A00002D0009B002B01D1002330E0039B029A46
:1033B0001A60039B00225A60039B019A9A60039B48
:1033C000009ADA60039B009A5A61029B019A02FB01
:1033D00003F3009A1A44039B1A61009B019A029915
:1033E0000398FFF77FFA08E0009A019B13440593C6
:1033F000009B059A1A60059B0093029B013B029378
:10340000029B002BF0D1009B00221A60012318467A
:1034100007B05DF804FB00B585B00190019B002B5F
:1034200005D100210020FFF765FA00231AE0019B77
:103430001A1D019B1B6819461046FFF746FF0246FE
:10344000019B1B689A4206D2019B14331846FFF772
:103450006BFF039001E00023039303990198FFF7AA
:1034600049FA039B184605B05DF804FB00B585B02A
:1034700001900091019B002B09D0019BDB68009A11
:103480009A4204D3019B1B69009A9A4208D36FF0B9
:10349000030200990198FFF733FA6FF0030319E074
:1034A000019B04331846FFF729FF0346002B08D081
:1034B000019B143300991846FFF74CFF0023039338
:1034C00002E06FF002030393039A00990198FFF75B
:1034D00017FA039B184605B05DF804FB10B483B0DF
:1034E00001900B468DF80330019B9DF80320D3E833
:1034F0004F1FC3E8402F00B1F9E7CCB2234618466E
:1035000003B05DF8044B704710B483B00190019B89
:1035100053E8002F511C43E8001000B1F8E71446AF
:103520002346184603B05DF8044B704710B483B0CF
:103530000190019B53E8002F12B9BFF32F8F04E0D5
:10354000511E43E8001000B1F4E714462346184624
:1035500003B05DF8044B7047014B5B691846704738
:10356000A802002000B585B001900091019B1B6B63
:10357000002B2ED0019B1B6B03930023029304E0CE
:10358000039B0293039B5B680393039B002B05D073
:10359000039BDA78009BDB789A42F1D3009B039A75
:1035A0005A60009B029A9A60039B002B03D0039BF6
:1035B000009A9A6002E0019B009ADA62029B002B5B
:1035C00003D0029B009A5A600FE0019B009A1A6395
:1035D0000BE0009B00225A60009B00229A60019B36
:1035E000009ADA62019B009A1A63019B28331846FD
:1035F000FFF78AFF00BF05B05DF804FB00B587B098
:103600000190019B28331846FFF790FF0490049B1C
:10361000002B01D1002319E0019BDB6A05930FE029
:10362000059B023301211846FFF758FF03468DF82A
:103630000F309DF80F30002B06D0059B9B6805933B
:10364000059B002BECD100E000BF059B184607B09E
:103650005DF804FB82B001900091009B5B68002B39
:1036600005D0009B5B68009A92689A6003E0009B1B
:103670009A68019BDA62009B9B68002B05D0009B37
:103680009B68009A52685A6003E0009B5A68019B4D
:103690001A6300BF02B0704700B587B00190019B6C
:1036A0005B78002B00F0BC80019B9B78002B60D0E6
:1036B000019B0C330293029B1B680593059B5B786F
:1036C000002B00F0AF8001990598FFF7C3FF019B25
:1036D00000225A70059B0C3301991846FFF7C6FE6D
:1036E000059B9B68002B00F0A080059B9B685B7886
:1036F000932B40F09A80059B0C331846FFF78BFE06
:103700000190019B002B00F09080059801F0CEF90C
:10371000049000220021049801F04EFC049801F06E
:103720008FFB0390019B03F10C00039B08331B6884
:103730001946059B5B6A1A4605F0AAFB019B072206
:103740001A70019B01225A70019B00229A70039B00
:103750000C331B68DAB2019BDA7001990598FFF708
:1037600001FF039B08331B6819460598FFF78CF986
:103770005BE0019B9B680593059B5B78002B53D016
:10378000059B9B68002B40D0059B9B685B78832B37
:103790003BD1019B5B6819460598FFF775F90598C1
:1037A00001F084F9049000220021049801F004FC47
:1037B000049801F045FB0390039B08331B681846EF
:1037C000019B03F10C01059B5B6A1A4605F060FB47
:1037D000039B0C331B68002B06D0039B0C331B6828
:1037E0001A46019BDB781370039B08331B6819464C
:1037F0000598FFF769F9019B00225A70059B0C336D
:1038000001991846FFF732FE0FE0019B5B681946ED
:103810000598FFF739F901990598FFF7A3FE04E031
:1038200000BF02E000BF00E000BF07B05DF804FB8E
:1038300000B58DB0039002910192039B002B02D042
:10384000029B002B06D16FF003010020FEF75CFF06
:103850000023F9E0029B033323F003030C330793A7
:10386000039BB3FA83F2079BB3FA83F313441F2B32
:1038700006DC6FF003010020FEF746FF0023E3E0C3
:10388000039B079A02FB03F30693019B002B46D090
:10389000019B1B680893019B9B680B93019B1B6911
:1038A0000A93019B5B6905930B9B002B0FD00B9B2D
:1038B00003F00303002B03D1019BDB68332B11D8EA
:1038C0006FF008010020FEF71FFF0023BCE0019B02
:1038D000DB68002B06D06FF008010020FEF714FF14
:1038E0000023B1E00A9B002B0FD00A9B03F00303D7
:1038F000002B03D1059A069B9A4216D26FF009015C
:103900000020FEF701FF00239EE0059B002B0CD05A
:103910006FF009010020FEF7F7FE002394E000237A
:10392000089300230B9300230A930B9B002B23D1B6
:10393000474BD3F8A030002B07D0454BD3F8A0302D
:103940001846FFF768FD0B9008E0414BD3F8803034
:10395000012234211846FFF7F5FB0B900B9B002B3F
:1039600006D16FF004010020FEF7CEFE00236BE0CD
:1039700001238DF8273002E000238DF827300A9BC1
:10398000002B36D1324BDB6F002206991846FFF729
:10399000D9FB0A900A9B002B20D16FF00401002074
:1039A000FEF7B2FE9DF8273003F00103002B13D081
:1039B000274BD3F8A030002B07D0254BD3F8A030ED
:1039C0000B991846FFF752FD06E0214BD3F88030E3
:1039D0000B991846FFF72EFC002335E0069A0021CC
:1039E0000A9805F053FB9DF8273043F002038DF849
:1039F00027300B9B08221A700B9B01225A700B9BDD
:103A00009DF827209A700B9B089A5A600B9B002206
:103A10009A600B9B029A5A620B9B00229A620B9B44
:103A20000022DA620B9B00221A630B9B03F10C004D
:103A30000A9B079A0399FFF7A5FC054B054A1A67ED
:103A40000B98FFF700F80B9B18460DB05DF804FBD0
:103A5000A80200209936000810B588B003900291A2
:103A6000009313468DF80730039B0793079B002BA9
:103A700006D0079B1B78082B02D1029B002B07D195
:103A80006FF003010798FEF73FFE6FF0030397E026
:103A9000079B5B78002B07D16FF002010798FEF7B8
:103AA00033FE6FF002038BE0079B9B68002B34D042
:103AB000079B9B685B78832B2FD102990798FEF7B1
:103AC000E3FF079800F0F2FF06900122002106981C
:103AD00001F072FA069801F0B3F90590059B0833DE
:103AE0001B681846079B5B6A1A46029905F0D0F9D5
:103AF000059B0C331B68002B06D0059B0C331B6801
:103B00001A469DF807301370059B08331B68194649
:103B10000798FEF7D9FF002352E0079B0C331846A5
:103B2000FFF779FC0490049B002B1FD0049B03F14A
:103B30000C00079B5B6A1A46029905F0A9F9049BE1
:103B400007221A70049B01225A70049B00229A706B
:103B5000049B9DF80720DA7004990798FFF702FD8F
:103B600002990798FEF790FF002329E0009B002BA5
:103B700020D0009A02990798FEF774FFFFF7ECFC3B
:103B800003461946079800F05FFF0099932001F063
:103B900037FAEFF309831C4623460593059B083348
:103BA000029A1A60059B0C339DF807201A606FF08B
:103BB000010305E002990798FEF76CFF6FF002031E
:103BC000184608B010BD10B588B00390029101925C
:103BD0000093039B0793079B002B06D0079B1B7842
:103BE000082B02D1029B002B07D16FF0030107982D
:103BF000FEF78AFD6FF00303A4E0079B5B78002BC0
:103C000007D16FF002010798FEF77EFD6FF0020307
:103C100098E00798FFF7F2FC0690069B002B25D052
:103C200006990798FFF716FD069B03F10C01079B09
:103C30005B6A1A46029805F02BF9019B002B03D012
:103C4000069BDA78019B1A7002990798FEF73CFFF1
:103C5000069B00225A70079B0C3306991846FFF703
:103C600005FC079B9B68002B6BD029E0009B002B79
:103C70001FD0009A02990798FEF71AFFFFF76CFC15
:103C800003461946079800F0DFFE0099832001F0F3
:103C9000B7F9EFF309831C4623460593059B0833C8
:103CA000029A1A60059B0C33019A1A606FF00103A7
:103CB00048E002990798FEF70DFF6FF0020341E01C
:103CC000079B9B685B78932B3BD1079B0C33184673
:103CD000FFF7A1FB0690069B002B32D0079800F05F
:103CE000E5FE049001220021049801F065F9049892
:103CF00001F0A6F80590069B03F10C00059B083324
:103D00001B681946079B5B6A1A4605F0C1F8069BBB
:103D100007221A70069B01225A70069B00229A7095
:103D2000059B0C331B68DAB2069BDA70069907987C
:103D3000FFF718FC059B08331B6819460798FEF728
:103D4000A3FE0023184608B010BD00B589B003904B
:103D50000291009313468DF80730039B0793079B4E
:103D6000002B09D0079B1B78082B05D1029B002B49
:103D700002D0009B002B07D06FF003010798FEF7DD
:103D8000C3FC6FF0030345E0079B5B78002B07D172
:103D90006FF002010798FEF7B7FC6FF0020339E0FD
:103DA000079B0C331846FFF736FB0690069B002B4B
:103DB0002AD0069B03F10C00079B5B6A1A46029906
:103DC00005F066F8069B07221A70069B01225A70BE
:103DD000069B00229A70069B9DF80720DA70069BCE
:103DE00004330593059B029A1A60069B08330593DA
:103DF000059B079A1A60069800F07AFD02990798C9
:103E0000FEF73CFE002305E002990798FEF742FE0C
:103E10006FF00203184609B05DF804FB00B589B0E5
:103E20000390029101920093039B0793079B002B41
:103E300009D0079B1B78082B05D1029B002B02D0D1
:103E4000009B002B07D06FF003010798FEF75CFC86
:103E50006FF0030337E0079B5B78002B07D16FF00F
:103E600002010798FEF750FC6FF002032BE0079861
:103E7000FFF7C4FB0690069B002B1ED0069B03F1A8
:103E80000C01079B5B6A1A46029805F001F8019B3A
:103E9000002B03D0069BDA78019B1A7002990798D1
:103EA000FEF712FE069B0C330593059B079A1A60DA
:103EB000069800F01DFD002305E002990798FEF723
:103EC00009FE6FF00203184609B05DF804FB00001C
:103ED00000B58BB0039002910192019A0299039868
:103EE000FEF7AAFDEFF305830993099B002B0BD185
:103EF000EFF310830893089B002B05D1EFF3118398
:103F00000793079B002B06D06FF005010020FEF7FA
:103F1000FBFB00231EE0039B0693029B0593019B82
:103F2000049306980599049B1A460C4B9C46EFF3A4
:103F3000148313F0020F0AD113F0040FEFF3088378
:103F40000CBF203B683B23F0070383F3098800DFA5
:103F5000034600BF18460BB05DF804FB313800087B
:103F600010B58CB003900291009313468DF8073082
:103F70009DF80720009B02990398FEF769FDEFF377
:103F800005830B930B9B002B0BD1EFF310830A934C
:103F90000A9B002B05D1EFF311830993099B002B9A
:103FA00008D09DF80720009B02990398FFF7CDFEEB
:103FB000034616E0039B0893029B07939DF8073086
:103FC0008DF81B30009B0593089B1846079B1946EC
:103FD0009DF81B301A46059B034CA44600DF0346A0
:103FE00000BF18460CB010BD593A000810B58CB08F
:103FF0000390029101920093009B019A0299039809
:10400000FEF74EFDEFF305830B930B9B002B0BD1BB
:10401000EFF310830A930A9B002B05D1EFF3118372
:104020000993099B002B07D0009B019A02990398E2
:10403000FFF7F4FE034613E0039B0893029B0793EC
:10404000019B0693009B0593089B1846079B194606
:10405000069B1A46059B044CA44600DF034600BF9E
:1040600018460CB010BD00BFC73B0008014B5B6990
:1040700018467047A802002000B585B00190019B4A
:10408000039332E0039B5B690193039BDB7803F0AE
:104090000803002B27D0039B00221A7600210398E7
:1040A000FEF7BAFC039B9B68002B1CD0039800F022
:1040B000FDFC029000220021029800F07DFF039B8E
:1040C000029ADA60029BDA6A039B5A61039B002220
:1040D0001A61029B039ADA62039B01221A7601217C
:1040E0000398FEF789FC019B0393039B002BC9D126
:1040F00000BF05B05DF804FB00B587B00190019BDF
:10410000002B26D0019B1B680293019B5B680493E4
:10411000019B9B680593059B002B0FD0059B03F02B
:104120000303002B03D1019BDB681B2B17D86FF017
:1041300008010020FEF7D4FA00235EE0019BDB6853
:10414000002B0CD06FF008010020FEF7C9FA002305
:1041500053E0002302930023049300230593059B5F
:10416000002B23D1274BD3F89430002B07D0254BBD
:10417000D3F894301846FFF74EF9059008E0214B2C
:10418000D3F8803001221C211846FEF7DBFF059092
:10419000059B002B06D16FF004010020FEF7A0FA6A
:1041A00000232AE001238DF80F3002E000238DF870
:1041B0000F30059B04221A70059B01225A70059B43
:1041C0009DF80F209A70049BDAB2059BDA70059B6C
:1041D000029A5A60059B00229A60059B0022DA60D1
:1041E000059B00221A61059B00225A61059B002253
:1041F0001A760598FEF7EAFB059B184607B05DF8AE
:1042000004FB00BFA802002000B585B0019000911A
:10421000019B0393FFF72AFF0290029B002B07D11B
:104220006FF007010398FEF75BFA4FF0FF3395E05C
:10423000039B002B03D0039B1B78042B07D06FF04C
:1042400003010398FEF74CFA6FF0030386E0039B2B
:104250005B78002B07D16FF002010398FEF740FA5C
:104260006FF002037AE0039B1B7E002B1FD1039BA0
:10427000029ADA60029BDA6A039B5A61039B00226E
:104280001A61029BDB6A002B03D0029BDB6A039A54
:104290001A61029B039ADA62039B01221A76039B3E
:1042A0001B7E19460398FEF7A7FB002356E0039BED
:1042B000DB7803F00103002B1ED0039BDB68029A1E
:1042C0009A4219D1039B1B7EFF2B07D16FF00F0180
:1042D0000398FEF705FA6FF002033FE0039B1B7E95
:1042E0000133DAB2039B1A76039B1B7E19460398AF
:1042F000FEF782FB002331E0009B002B29D0039BBB
:10430000DB7803F00203002B14D0039BDB6893F9E6
:104310002020029B93F920309A420BDA039BDB6842
:10432000029A92F9202083F82020039BDB6818462C
:1043300000F0E8FB00990398FEF753FB02990398FD
:1043400000F082FB0099532000F05AFE6FF0010349
:1043500004E00398FEF756FB6FF00203184605B021
:104360005DF804FB00B589B00190019B0593FFF750
:104370007DFE0490049B002B07D16FF00701059888
:10438000FEF7AEF94FF0FF33ADE0059B002B03D0F5
:10439000059B1B78042B07D06FF003010598FEF7EF
:1043A0009FF96FF003039EE0059B5B78002B07D11C
:1043B0006FF002010598FEF793F96FF0020392E0A7
:1043C000059BDB68049A9A4207D06FF00D010598AF
:1043D000FEF786F96FF0020385E0059B1B7E002B3C
:1043E00007D16FF00E010598FEF77AF96FF002031E
:1043F00079E0059B1B7E013BDAB2059B1A76059B93
:104400001B7E19460598FEF707FB059B1B7E002BBC
:1044100001D0002367E0059B5B69002B04D0059B5E
:104420005B69059A12691A61059B1B69002B05D00F
:10443000059B1B69059A52695A6103E0059B5A69FD
:10444000049BDA62059BDB7803F00203002B25D086
:10445000049B93F821308DF81B30049BDB6A079393
:1044600014E0079B9B68002B0DD0079B9B6893F97A
:1044700020309DF91B209A4205DA079B9B6893F830
:1044800020308DF81B30079B5B690793079B002B3F
:10449000E7D1049B9DF81B2083F82020059B9B6897
:1044A000002B1CD0059800F001FB03900022002196
:1044B000039800F081FD059B039ADA60039BDA6A9A
:1044C000059B5A61059B00221A61039B059ADA62DB
:1044D000059B01221A7601210598FEF78DFA00202E
:1044E00000F01EFD0023184609B05DF804FB000033
:1044F00000B587B001900198FEF763FAEFF30583EA
:104500000593059B002B0BD1EFF310830493049BC1
:10451000002B05D1EFF311830393039B002B06D0EF
:104520006FF005010020FEF7DBF8002318E0019B87
:104530000293029B18460C4B9C46EFF3148313F036
:10454000020F0AD113F0040FEFF308830CBF203BD6
:10455000683B23F0070383F3098800DF034600BFAD
:10456000184607B05DF804FBF940000800B589B0B3
:104570000190009100990198FEF72DFAEFF3058361
:104580000793079B002B0BD1EFF310830693069B39
:10459000002B05D1EFF311830593059B002B07D06A
:1045A0006FF005010198FEF79BF86FF005030BE033
:1045B000019B0493009B0393049B18460399044BAF
:1045C0009C4600DF034600BF184609B05DF804FBB7
:1045D0000942000800B587B001900198FEF717FA6C
:1045E000EFF305830593059B002B0BD1EFF31083AD
:1045F0000493049B002B05D1EFF311830393039BDA
:10460000002B07D06FF005010198FEF769F86FF0F5
:10461000050308E0019B0293029B1846044B9C464D
:1046200000DF034600BF184607B05DF804FB00BF7B
:1046300065430008024B4FF080525A6000BF70473C
:1046400000ED00E010B483B001900B46ADF80230ED
:10465000019BBDF80220D3E85F1F8A4202D8BFF356
:104660002F8F04E0481CC3E8540F04B1F3E78CB269
:104670002346184603B05DF8044B704710B483B06E
:1046800001900B46ADF80230019BBDF80220D3E843
:104690005F1F481C824200D80020C3E8540F04B1B9
:1046A000F5E78CB22346184603B05DF8044B70471B
:1046B00010B483B00190019BD3E85F2F12B9BFF310
:1046C0002F8F04E0511EC3E8501F00B1F4E794B2ED
:1046D0002346184603B05DF8044B7047014B1B7A24
:1046E00018467047A802002000B587B00190154B0E
:1046F000B3F85430ADF81230BDF8123019461248F4
:10470000FFF7A0FF03461A46BDF81230934211D9B5
:10471000BDF8123019460D48FFF7B0FF034603936A
:10472000084BDA6D039B9B001344019A1A60012326
:10473000059301E000230593059B184607B05DF83B
:1047400004FB00BFA8020020FE020020000300209E
:1047500000B585B0104BB3F85430ADF80A300F48AF
:10476000FFF7A6FF0346002B0FD0BDF80A3019460D
:104770000B48FFF783FF03460193074BDA6D019B5C
:104780009B0013441B68039301E000230393039BE6
:10479000184605B05DF804FBA8020020FE020020C8
:1047A0000203002000B583B001F036F92D4BDB6821
:1047B00001332C4AD3602B4B1B6D002B02D0294BAD
:1047C0001B6D984700F0B2FA002000F0A9FB254BC2
:1047D0001B6C002B41D0234B9A6B224B9B699A4256
:1047E00008D0204B9B691F4A93631E4B1B6C1D4ACC
:1047F000D36332E01B4BDB6B002B04D0194BDB6B1C
:10480000013B184AD363174BDB6B002B25D1FFF715
:1048100065FF0346022B20D1124B5B6A0193019B7B
:10482000002B1AD0019B93F920200E4B9B6B93F920
:1048300020309A4211D1019800F082F9094B9B6B0C
:10484000184600F097F9019800F03EFB054A019BDD
:104850009363044B1B6C034AD36300BF03B05DF842
:1048600004FB00BFA802002000B583B0FFF770FF73
:104870000190019B002B30D0019B1B78013B062B44
:1048800029D801A252F823F0A5480008D74800080B
:10489000AF480008D7480008B9480008C3480008D6
:1048A000CD480008114B1B6E0198984714E00F4B40
:1048B0005B6E019898470FE00C4B9B6E01989847F0
:1048C0000AE00A4BDB6E0198984705E0074B1B6F27
:1048D0000198984700E000BFC8E700BF002000F043
:1048E0001FFB00BF03B05DF804FB00BFA80200205F
:1048F00000B583B001900198FFF7F6FE0346002B48
:104900000BD00A4B5B7ADBB2002B02D1FFF792FE91
:1049100007E0064B01229A7203E001990220FDF79D
:1049200035FE00BF03B05DF804FB00BFA802002005
:1049300010B483B001900091019B009A53E8001FCE
:1049400001EA0200904203D0BFF32F8F002105E05F
:1049500021EA020043E8000404B1EFE70C462346D5
:10496000184603B05DF8044B704710B483B0019053
:104970000091019B009A53E8001F114203D1BFF33D
:104980002F8F002105E021EA020043E8000404B172
:10499000F1E70C462346184603B05DF8044B704718
:1049A000014B1B7A18467047A8020020014B5B6937
:1049B00018467047A802002082B00190024A019B6D
:1049C000536100BF02B07047A802002000B587B055
:1049D000039002910192019B03F00203002B14D17A
:1049E000019B03F00103002B07D0039B283302999E
:1049F0001846FFF79DFF059021E0039B283302999D
:104A00001846FFF7B2FF059019E0039B9B6A0593D8
:104A1000019B03F00103002B05D0059A029B134074
:104A2000029A9A4209D1019B03F00103002B06D19F
:104A3000059A029B1340002B01D100230593059B8F
:104A4000184607B05DF804FB86B001900091009B0A
:104A5000002B28D0009B93F920300393019B0593F2
:104A6000019B9B68049304E0049B0593049B9B6853
:104A70000493049B002B06D0049B93F920301A4624
:104A8000039B9342F0DD009B059ADA60009B049A39
:104A90009A60059B009A9A60049B002B04D0049BAB
:104AA000009ADA6000E000BF06B0704784B0019061
:104AB000019B9B680393039B002B0ED0039B9A687A
:104AC000019B9A60039B9B68002B03D0039B9B6810
:104AD000019ADA60039B0022DA60039B184604B057
:104AE000704782B0019002E0019BDB680193019B5B
:104AF000002B03D0019B1B78012BF5D0019B18469E
:104B000002B0704700B585B00190019B039305E0AA
:104B1000039BDB680393039B002B0DD0039B1B7847
:104B2000012BF5D0039B0293019800F009F801993D
:104B30000298FFF789FF00E000BF05B05DF804FBB5
:104B400082B00190019BDB68002B10D0019BDB68D9
:104B5000019A92689A60019B9B68002B04D0019B8C
:104B60009B68019AD268DA60019B0022DA6000BF7C
:104B700002B0704700B583B00190019B01225A70CA
:104B800001990348FFF760FF00BF03B05DF804FB25
:104B9000C402002084B001900091009BB3F1FF3F5C
:104BA00027D100230393304B1B6B029304E0029B3D
:104BB0000393029B1B690293029B002BF7D1019B7D
:104BC000009ADA61019B039A5A61019B029A1A6169
:104BD000039B002B03D0039B019A1A6102E0224A37
:104BE000019B1363029B002B3AD0029B019A5A61EE
:104BF00036E0002303931C4BDB6A029309E0029B1F
:104C0000DB69009AD31A0093029B0393029B1B69F2
:104C10000293029B002B04D0029BDB69009A9A420C
:104C2000EDD2019B009ADA61019B039A5A61019BC4
:104C3000029A1A61039B002B03D0039B019A1A610D
:104C400002E0094A019BD362029B002B08D0029B21
:104C5000DA69009BD21A029BDA61029B019A5A61BF
:104C600000BF04B0704700BFA802002082B00190CE
:104C7000019BDB69B3F1FF3F23D1019B5B69002BF3
:104C800004D1294B1B6B019A9A4247D1019B1B69A6
:104C9000002B04D0019B1B69019A52695A61019B48
:104CA0005B69002B08D0019B5B69019A12691A614C
:104CB000019B00225A6134E0019B1B691A4A13636D
:104CC0002FE0019B5B69002B04D1174BDB6A019A33
:104CD0009A4225D1019B1B69002B0DD0019B1B69BA
:104CE000D969019BDA69019B1B690A44DA61019B5E
:104CF0001B69019A52695A61019B5B69002B08D0BC
:104D0000019B5B69019A12691A61019B00225A6139
:104D100007E0019B1B69044AD36202E000BF00E088
:104D200000BF02B0704700BFA802002000B583B0EA
:104D3000424BDB6A0193019B002B7AD0019BDB691C
:104D40005A1E019BDA61019BDB69002B72D1019B2A
:104D50005B78532B22D0532B06DC332B13D0432B01
:104D600014D0132B0CD041E0732B27D0732B02DC13
:104D7000632B1BD03AE0832B28D0932B2ED035E029
:104D8000FDF712FE32E0FDF701FE2FE00198FFF77C
:104D9000A8FE03461846FDF70FFE27E00198FFF72F
:104DA000A0FE03461846FDF722FE1FE00198FFF71C
:104DB00098FE03461846FDF735FE17E00198FFF709
:104DC00090FE03461846FDF732FE0FE00198FFF70C
:104DD00088FE03461846FDF772FE07E00198FFF7CC
:104DE00080FE03461846FDF744FE00BF019800F020
:104DF00027F803461B6819460198FDF7B7FD01988F
:104E0000FFF79EFE0198FFF7B5FE019B1B6901931A
:104E1000019B002B03D0019BDB69002B97D0019BEA
:104E2000002B02D0019B00225A61044A019BD362ED
:104E300000E000BF03B05DF804FB00BFA802002043
:104E400082B00190019B9B6B019A92F8222002F0A4
:104E50001002002A01D1602200E0202213441846EB
:104E600002B0704786B00190019B01225A70019BED
:104E700093F920300393134B0593059B9B68049390
:104E800004E0049B0593049B9B680493049B002B04
:104E900006D0049B93F920301A46039B9342F0DB23
:104EA000019B059ADA60019B049A9A60059B019A1E
:104EB0009A60049B002B02D0049B019ADA6000BF29
:104EC00006B07047C402002000B583B00190019B7A
:104ED00002225A70054A019B936100F0CBF80198B9
:104EE000FDF74AFD00BF03B05DF804FBA8020020F7
:104EF00008B5094B1B68002B0CD0074B1B681B69BE
:104F0000002B07D0044B1B681B69044A9269526C42
:104F10001046984700BF08BD60260020A802002068
:104F200000B585B00190FFF73BFD03468DF80F30CB
:104F3000FFF73CFD0290019B002B1ED11D4B5B6ACD
:104F400001939DF80F30022B30D1029B002B2DD006
:104F5000019B002B2AD0019B93F92020029B93F9FF
:104F600020309A4222DD0198FFF7EAFD0298FFF710
:104F700079FF0198FFF7A8FF18E09DF80F30022B8A
:104F800011D1029B002B0ED0019B93F92020029B94
:104F900093F920309A4206DD0298FFF763FF0198EB
:104FA000FFF792FF02E00198FFF7E4FD00BF05B0B4
:104FB0005DF804FBA802002000B587B003900291C1
:104FC00013468DF8073002990398FDF7CFFC03983C
:104FD000FFF736FF0590059B029A1A600398FFF7CA
:104FE00045FE9DF80730002B03D00398FFF798FF8C
:104FF00002E00398FFF7BEFD00BF07B05DF804FBB9
:1050000000B585B0034600918DF80730FFF7CEFC60
:105010000390039B002B01D1002323E0FFF7C0FC8A
:105020000346022B04D00398FFF78AFD002319E002
:105030000E4B5B6A002B01D1002313E0009903980B
:10504000FDF78EFC039B9DF807205A70009903988A
:10505000FFF7A0FD0648FFF729FD03900398FFF72F
:1050600033FF0123184605B05DF804FBA8020020B9
:10507000C402002000B583B0FFF798FC0190019BAB
:10508000002B0FD0019B9B6B019A126B934205D9A9
:10509000019B1B6B1B68054A934203D001990120B9
:1050A000FDF774FA00BF03B05DF804FBA52E5AE2C9
:1050B00000B585B00190019B5B78002B23D0019B4C
:1050C0005B78042B1FD0019B5B78332B1CD1019B99
:1050D000596A019B93F823301A460198FFF776FC32
:1050E0000390039B002B0FD0002203990198FFF738
:1050F00063FF019B586A019B93F82330039A19467A
:10510000FDF746FC00E000BF05B05DF804FB0000C1
:1051100000B58FB00390029101920093039B002B86
:1051200006D16FF003010020FDF7C6FA0023ACE1C1
:10513000019B002B54D0019B1B680793019B5B686C
:105140000C93019B9B680D93019B1B690B93019B27
:105150005B690A93019B9B6909930D9B002B0FD000
:105160000D9B03F00303002B03D1019BDB68472B4E
:1051700011D86FF008010020FDF79EFA002384E1AA
:10518000019BDB68002B06D06FF008010020FDF7C3
:1051900093FA002379E10B9B002B0ED00B9B03F0BD
:1051A0000703002B02D10A9B002B06D16FF00A01E6
:1051B0000020FDF781FA002367E1099B002B02D153
:1051C0001823099318E0099B002B02DD099B382B5B
:1051D00012DD6FF00B010020FDF76EFA002354E1A1
:1051E0000023079300230C9300230D9300230B93BC
:1051F00000230A93182309930A9B002B0ED00A9BC5
:1052000003F00703002B02D10A9B472B06D86FF04F
:105210000A010020FDF750FA002336E10D9B002B18
:1052200023D19C4BD3F88830002B07D0994BD3F86F
:1052300088301846FEF7EFF80D9008E0954BD3F84C
:105240008030012248211846FDF77CFF0D900D9B10
:10525000002B06D16FF004010020FDF72DFA00238A
:1052600013E101238DF8233002E000238DF8233071
:105270000B9B002B56D10A9B002B21D1864B5B6DDB
:105280000A93844BD3F88430002B10D0814BD3F891
:1052900084301846FEF7BFF80B900B9B002B17D0FD
:1052A0009DF8233043F010038DF8233010E0794B44
:1052B0005B6F00220A991846FDF744FF0B9007E048
:1052C000744B5B6F00220A991846FDF73BFF0B9069
:1052D0000B9B002B20D16FF004010020FDF7ECF9AF
:1052E0009DF8233003F00103002B13D0694BD3F852
:1052F0008830002B07D0674BD3F888300D991846BB
:10530000FEF7B4F806E0634BD3F880300D991846E9
:10531000FDF790FF0023B8E09DF8233043F002032F
:105320008DF823300D9B01221A700D9B01225A70BB
:105330000D9B9DF823209A700C9BDAB20D9BDA70BE
:105340000D9B079A5A600D9B00229A600D9B0022CC
:10535000DA600D9B00221A610D9B00225A610D9BA1
:1053600000229A610D9B0022DA61099B5AB20D9BC3
:1053700083F82020099B5AB20D9B83F821200D9BB6
:10538000FD2283F822200D9B002283F823200D9B11
:1053900000225A620D9B00229A620D9B0022DA6263
:1053A0000D9B0B9A1A630D9B0A9A5A630B9A0A9BE0
:1053B0001344A3F140020D9B9A63039A0D9BDA6399
:1053C0000B9B0693069B1A1D0692344A1A60324BB9
:1053D0001B6803F00403002B11D00A9B9B08113BB0
:1053E000059308E0069B1A1D06924FF0CC321A6016
:1053F000059B013B0593059B002BF3D102E00D9B20
:105400009B6B06930D23059307E0069B1A1D0692DE
:1054100000221A60059B013B0593059B002BF4D1EC
:10542000069B1A1D06921E4A1A60069B1A1D0692BA
:10543000039A1A60069B1A1D06924FF080721A603A
:10544000069B203B029A1A60124B164A1A660D9868
:10545000FDF771FA144B1B68002B0FD0124B1B6821
:105460009B68002B0AD0104B1B689B680D9A009913
:105470001046984702460D9B5A6402E00D9B009A25
:105480005A640D98FFF74CFD0D9B18460FB05DF860
:1054900004FB00BFA802002078F20008A52E5AE203
:1054A000C5570008B15000086026002000B585B03F
:1054B0000190019B0393039B002B03D0039B1B785C
:1054C000012B05D000210398FDF73AFA002311E0E3
:1054D000039B5B78002B05D100210398FDF730FA80
:1054E000002307E0039B5B6819460398FDF728FA41
:1054F000039B5B68184605B05DF804FB00B583B0FC
:10550000FFF754FA01900198FDF720FA019B184625
:1055100003B05DF804FB000000B583B00190019B6F
:1055200000225A70019B9B7803F00203002B17D0D6
:10553000019B9B7803F01003002B09D0174BD3F885
:105540008420019B1B6B19461046FDF78FFF07E077
:10555000124B5A6F019B1B6B19461046FDF76AFEF2
:10556000019B9B7803F00103002B13D00B4BD3F866
:105570008830002B07D0094BD3F8883001991846A2
:10558000FDF774FF06E0054BD3F88030019918460B
:10559000FDF750FE00BF03B05DF804FBA802002039
:1055A00010B582B0FFF702FA0190019B002B54D096
:1055B000019BDB6A1846FEF75FFD019B9B69002B90
:1055C0000BD0019B9B69002200211846FFF7F4FCD9
:1055D000019B9B691846FDF7BEF9FFF7E1F9034609
:1055E000022B3CD11F4B5B6A002B38D0EFF30983B1
:1055F0001C462246019B9A631B48FFF757FA034655
:105600001846FFF761FC0020FFF7D6F9019BDB7815
:1056100003F00103002B03D0019B9B69002B03D0F7
:105620000198FFF779FF14E0019B04225A70019B57
:105630000022DA600B4B5A6B019B9A60094B5B6B43
:10564000002B03D0074B5B6B019ADA60054A019B84
:1056500053630198FDF795F902E000BF00E000BF39
:1056600002B010BDA8020020C402002000B585B021
:105670000390029101920023019A0299039800F08D
:1056800005F80346184605B05DF804FB10B58CB06C
:105690000390029101920093019A02990398FDF7F9
:1056A00043F9EFF305830B930B9B002B0BD1EFF327
:1056B00010830A930A9B002B05D1EFF31183099302
:1056C000099B002B06D06FF005010020FCF7F4FFCA
:1056D000002323E0039B0893029B0793019B0693FF
:1056E000009B0593089B1846079B1946069B1A4684
:1056F000059B0C4CA446EFF3148414F0020F0AD15E
:1057000014F0040FEFF308840CBF203C683C24F035
:10571000070484F3098800DF034600BF18460CB075
:1057200010BD00BF1151000800B587B00190EFF324
:1057300005830593059B002B0BD1EFF31083049396
:10574000049B002B05D1EFF311830393039B002BE4
:1057500005D000210198FDF7F3F8002308E0019B34
:105760000293029B1846044B9C4600DF034600BF91
:10577000184607B05DF804FBAD54000800B585B0CD
:10578000EFF305830393039B002B0BD1EFF31083FF
:105790000293029B002B05D1EFF311830193019B30
:1057A000002B04D00020FDF7D1F8002304E0044BC7
:1057B0009C4600DF034600BF184605B05DF804FBB9
:1057C000FD54000808B5FCF7AFFF044B9C4600DF12
:1057D0004FF0FF310020FCF76FFFFEE7A1550008F6
:1057E00084B001900091002303931C4B5B6C0293E7
:1057F00009E0029B1B69009AD31A0093029B039352
:10580000029BDB680293029B002B04D0029B1B6966
:10581000009A9A42EDD2019B009A1A61019B039A69
:105820009A60019B029ADA60029B002B09D0029BCE
:105830001A69019B1B69D21A029B1A61029B019A89
:105840009A60039B002B03D0039B019ADA6002E06D
:10585000024A019B536400BF04B07047A8020020B5
:1058600082B00190019BDB68002B04D0019BDB68B8
:10587000019A92689A60019BDB68024A536400BFF8
:1058800002B07047A802002000B583B01E4B5B6CCD
:105890000193019B002B32D0019B1B695A1E019B77
:1058A0001A6124E00198FFF7DBFF174BD86C019BCE
:1058B00003F1180100230022FEF752FB0090009B29
:1058C000002B03D001990320FCF760FE019BDB78DD
:1058D000012B06D1019B5B6919460198FFF780FFF8
:1058E00002E0019B01225A70074B5B6C0193019B04
:1058F000002B05D0019B1B69002BD3D000E000BF1B
:1059000003B05DF804FB00BFA802002000B587B01B
:105910000190174B586E164B1B6E1A460821FEF766
:10592000D7FA0246134BDA64124BDB6C002B1AD009
:10593000104B114A1A650F4BD86C03A94FF0FF3377
:105940000022FEF753FB0590059B002BF3D1039B30
:105950001A46049B19461046FDF728F8039B049A43
:1059600010469847E7E700BF07B05DF804FB00BFAB
:1059700078F20008A80200208958000884B001903D
:105980000091019B002B02D14FF0FF331EE0114B21
:105990001A68019BB2FBF3F3013B0393039BB3F142
:1059A000807F02D34FF0FF3310E00B4BFF2283F8D0
:1059B00023200A4B06221A60084A039B5360074BB8
:1059C00000229A60064B00221A700023184604B089
:1059D000704700BF5003002000ED00E010E000E041
:1059E000C4140020094B1B78002B06D0074B002263
:1059F0001A70074B4FF080625A60064B1B68054ACD
:105A000043F001031360002318467047C4140020BC
:105A100000ED00E010E000E0024B1B680023184698
:105A2000704700BF10E000E04FF0FF3318467047AA
:105A300000B583B00190064B1B68002B03D0044BCC
:105A40001B680198984700BF03B05DF804FB00BFD6
:105A5000C814002000B583B001900198FCF7FEFE49
:105A60000346184603B05DF804FB0000154BD3F85D
:105A70008830144A43F47003C2F88830124B1B6814
:105A8000114A43F0010313600F4B00229A600E4B42
:105A90001B680D4A23F0847323F4803313600A4B90
:105AA0000A4A5A60084B1B68074A23F48023136094
:105AB000054B0022DA60034B4FF000629A6000BF92
:105AC000704700BF00ED00E00038024010300024B5
:105AD00008B5012000F00CF80346002B05D100F0BA
