:020000040800F2
:1000000000800120117400085D740008692B00084D
:10001000712B0008792B0008812B000800000000DC
:10002000000000000000000000000000553400083F
:100030005D74000800000000EB340008FB34000889
:100040005D7400085D7400085D7400085D7400084C
:100050005D7400085D7400085D7400085D7400083C
:100060005D7400085D7400085D7400085D7400082C
:100070005D7400085D7400085D7400085D7400081C
:100080005D7400085D740008890B00080000000022
:100090000000000000000000000000005D74000887
:1000A0005D7400085D7400085D7400085D740008EC
:1000B0005D7400085D7400085D7400085D740008DC
:1000C0005D7400085D7400085D7400085D740008CC
:1000D0005D7400085D7400085D7400080000000095
:1000E0005D7400085D7400085D7400080000000085
:1000F0000000000000000000000000005D74000827
:10010000000000005D7400085D7400085D74000864
:1001100000000000000000000000000000000000DF
:100120005D7400085D7400085D7400085D7400086B
:100130005D740008000000000000000000000000E6
:100140000000000000000000000000005D740008D6
:100150005D7400085D7400085D7400085D7400083B
:100160005D7400085D7400080000000000000000DD
:10017000000000000000000000000000000000007F
:10018000000000005D740008000000000000000096
:100190005D74000810B5054C237833B9044B13B1D6
:1001A0000448AFF300800123237010BD100D002020
:1001B00000000000FC31010808B5034B1BB10349E6
:1001C0000348AFF3008008BD00000000140D0020BC
:1001D000FC310108154B002B08BF134B9D46A3F5BE
:1001E000803A00218B460F461348144A121A0CF02D
:1001F00065F80F4B002B00D098470E4B002B00D01A
:1002000098470020002104000D000D48002802D06E
:100210000C4802F093FA0BF08FFB2000290002F04B
:1002200075FF02F081FA00BF000008000080012085
:1002300000000000CD310008100D0020502A0020E1
:100240003D2700080000000082B001900091009B53
:10025000184602B07047000000B587B005900491C1
:1002600003920293059800F077FA104A059B1A60F2
:10027000059B04330021184600F074FA059B4033B7
:100280000021184602F000FC059B5433184602F08A
:1002900069FB089B0093029B039A0499059806F05A
:1002A000D7FE059B184607B05DF804FB80280108BF
:1002B00082B001900091009B002B05D0019B9B68B0
:1002C000019A12681A6005E0019B1A68019BDB68BD
:1002D00012041A6000BF02B0704782B00190019B07
:1002E0005B681A68019B1B681340002B01D0012337
:1002F00000E00023184602B07047000008B5044B28
:100300001B684FF0FF31184605F080F800BF08BDAC
:100310005828002008B5034B1B68184605F0AAF8BA
:1003200000BF08BD5828002000B583B001900B46DF
:10033000ADF80230019B1A460023136053609360AE
:10034000D360136153619361019BBDF90220114693
:10035000184600F0B3FE019B184603B05DF804FB9D
:1003600000B583B001900091019B00991846FFF7FA
:100370009FFF00BF03B05DF804FB00B583B00190A0
:10038000019B1846FFF7A9FF0346184603B05DF826
:1003900004FB00B583B00190009100990198FFF72C
:1003A000DFFF019B184603B05DF804FB00B583B086
:1003B00001900198FFF7E1FF0346184603B05DF88E
:1003C00004FB000000B583B001900B46ADF802308D
:1003D0000A4A019B1A60019800F02CF8019B043333
:1003E000BDF902201146184607F03AF8019800F0CE
:1003F00033F8019B184603B05DF804FB241B010889
:1004000082B00190034A019B1A60019B184602B01A
:10041000704700BF241B010800B583B0019001980C
:10042000FFF7EEFF019802F001FA019B184603B0B6
:100430005DF804FB00B583B00190064800F0A9F90F
:1004400003464FF0FF31184602F0D8FA00BF03B060
:100450005DF804FB400F002000B583B00190054813
:1004600000F097F90346184602F0E0FA00BF03B027
:100470005DF804FB400F002000B583B001900B46EF
:10048000ADF80230019B00221A7601F04DFC019B71
:10049000BDF90220114618460AF022F801F05EFC70
:1004A000019B184603B05DF804FB00B583B00190D2
:1004B00001F03AFC019800F03FF801F04FFC019B7D
:1004C000184603B05DF804FB00B583B001900091BD
:1004D00001F02AFC019800F01CF8019B00991846D5
:1004E0000AF004F901F03AFC00BF03B05DF804FB28
:1004F00000B583B00190009101F016FC019B0099BA
:1005000018460AF0A3F901F029FC00BF03B05DF81A
:1005100004FB00B583B00190019B1B7E83F00103B7
:10052000DBB2002B04D000F0CDFE019B01221A7635
:1005300000BF03B05DF804FB00B583B00190019BE0
:100540001B7E002B04D000F0D7FE019B00221A7600
:1005500000BF03B05DF804FBF0B585B02E480BF08A
:10056000F7FE0A212D48FFF7C3FF4FF07C512B48BF
:10057000FFF7AAFF00F010FB00F06EFA284807F022
:100580009FF80346002B14BF01230023DBB2002B8E
:1005900003D02221234800F0CDF8234808F088FB3F
:1005A0000346002B14BF01230023DBB2002B03D032
:1005B00026211C4800F0BEF84FF07E5002F070F982
:1005C0001A48FFF7F3FE0346002B0CBF012300235C
:1005D000DBB219461548FFF7DCFE154B1B681846C1
:1005E00010F030FD06460F46124B1B68184610F0FF
:1005F00029FD04460D46104B1B68184610F022FDDD
:1006000002460B46CDE90223CDE9004532463B4682
:100610000A480BF09DFECFE75C1A01085C0E002033
:10062000BC0E00208C1A0108040F0020F00D0020E1
:10063000780E00207C0E0020800E0020981A010801
:1006400000B583B00190019B084A934209D1012172
:100650000748FFF79EFE00F00FF800210448FFF75F
:1006600098FE00BF03B05DF804FB00BFBC0E002085
:10067000840E00200000000010B582B0264B0193CC
:10068000264807F007FA07EE900AF8EE677A17EEA9
:10069000900A10F0D7FC1CA3D3E9002310F054FEFD
:1006A00003460C461846214619A3D3E9002310F04F
:1006B00021FD03460C461846214610F0F3FF034681
:1006C00000930099144800F035F90246144B1A6063
:1006D000134B1B68184600F09FF90246104B1A6036
:1006E0000F4B1B6819460F48FFF7EEFE0E4A009BA2
:1006F00013600E4B084A1A60094B1B680C4A1360C2
:1007000000BF02B010BD00BF0000000000FEAF40FF
:1007100000000060662642400000A040BC0E0020A1
:10072000A00E00205C0E0020780E00207C0E002021
:10073000800E002000B583B001900091044B1B682F
:10074000D868009B019A03490AF0E2FDFEE700BF6A
:1007500054030020BC1A010882B00190019B184686
:1007600002B0704700B583B001900091009B002B50
:1007700005D11022002101980BF0A0FD04E06B468A
:100780001946019800F010F8019B184603B05DF877
:1007900004FB00B583B00190019800F023F80346F4
:1007A000184603B05DF804FB00B583B001900091DA
:1007B0001022002101980BF081FD019B19460420B5
:1007C000FFF742FD0346002B02D0009A12681A6020
:1007D000019B034ADA6000BF03B05DF804FB00BF71
:1007E000101B010810B582B00190019B1B68002B03
:1007F00018D1FFF783FD019B1B68002B10D1019BD3
:10080000043319462420FFF71FFD0446002C04D0B2
:10081000204602F0A7F8224600E02246019B1A601B
:10082000FFF778FD019B1A68019B04339A4204D0BC
:100830005D220449044801F0ADF9019B1B6818468C
:1008400002B010BDD41A0108FC1A010800B583B02B
:100850000190019B1B68984700BF03B05DF804FB43
:1008600000B583B001900091019B19460420FFF769
:10087000EBFC0346002B02D0009A12681A6000BFFE
:1008800003B05DF804FB82B0019000BF02B0704776
:1008900000B585B003900291039B012B2CD1029BE4
:1008A0004FF6FF72934227D10023009300234FF4A9
:1008B000805218211248FFF7CFFC124A1249104803
:1008C00001F02AFF05211148FFF72EFD00211048F5
:1008D000FFF778FD0B4A0F490D4801F01DFF082175
:1008E0000D48FFF7C9FD074A0C490B4801F014FFFA
:1008F00028210B48FFF718FD00BF05B05DF804FB89
:100900002C0D00209801002079710008F00D0020C6
:100910000C0E0020010400085C0E0020AB0400084F
:10092000840E002008B54FF6FF710120FFF7B0FFDD
:1009300008BD000088B0019000914FF000030793BC
:100940002A4B06932A4B05932A4B04932A4B039375
:100950009DED017ADDED007A77EE677ACDED027AD2
:10096000264B5B68254A9360244B1B68234A5360DF
:10097000224A029B1360224B5B68214A9360204B02
:100980001B681F4A53601D4BD3ED007A9FED1D7A03
:1009900027EE877A194BD3ED017ADFED1B6A67EEFC
:1009A000A67A37EE277A154BD3ED027ADFED176A78
:1009B00067EEA67A37EE277A114BD3ED017ADFED99
:1009C000146A67EEA67A37EE277A0D4BD3ED027ADA
:1009D000DFED106A67EEA67A77EE677A084BC3ED13
:1009E000007A074B1B68184608B07047AB788B3EFF
:1009F000AA3A253E754BAABFEEA1433FA40E0020A4
:100A0000B00E002000000000AB788B3EAA3A253ED5
:100A1000754BAA3FEEA1433F84B00190DDED017A12
:100A2000B7EE007AF4EEC77AF1EE10FA03DD4FF07C
:100A30007E5303930CE0DDED017AF5EEC07AF1EE22
:100A400010FA03D54FF00003039301E0019B0393D9
:100A5000039B184604B0704700B585B0264B274A63
:100A60001A60254B4FF480325A60234B00229A6063
:100A7000214B00221A61204B00229A611E4B00225A
:100A80001A621D4B4FF08052DA621B4B4FF0C0626E
:100A90009A62194B0022DA60174B00221A63164B38
:100AA00001225A61144806F0C5FD0346002B14BF0D
:100AB00001230023DBB2002B03D02A211048FFF7CB
:100AC00039FE0023009301230193002302936B4618
:100AD0001946094806F0F0FF0346002B14BF012316
:100AE0000023DBB2002B03D034210548FFF722FEA0
:100AF00000BF05B05DF804FBBC0E002000200140E3
:100B0000341B010800B58BB00190019B1B681B4A88
:100B100093422ED100230493194B5B6C184A43F483
:100B200080735364164B5B6C03F480730493049BD3
:100B300000230393124B1B6B114A43F00103136311
:100B40000F4B1B6B03F001030393039B01230593DE
:100B5000032306930023079305AB1946094807F0C2
:100B600093FA00220021122007F064FA122007F005
:100B70007DFA00BF0BB05DF804FB00BF0020014010
:100B8000003802400000024008B5024806F042FE6C
:100B900000BF08BDBC0E002000B583B01D4B4FF058
:100BA00080421A601B4B3222DA601A4B54225A6080
:100BB000184B00221A61174B00229A60154B002235
:100BC0005A61144808F04AF80346002B14BF012369
:100BD0000023DBB2002B03D047210F48FFF7AAFD0B
:100BE00020230093002301936B461946094808F01F
:100BF0002DFC0346002B14BF01230023DBB2002B86
:100C000003D051210448FFF795FD00BF03B05DF804
:100C100004FB00BF040F0020441B010884B00190B6
:100C200000230393074B1B6C064A43F00103136434
:100C3000044B1B6C03F001030393039B00BF04B040
:100C4000704700BF0038024000B583B00190019B9F
:100C5000DB68002B04D0019BDB689B6801989847F8
:100C6000019B184603B05DF804FB00B583B001900A
:100C70000091009B002B05D11022002101980BF060
:100C80001DFB04E06B461946019800F005F8019B36
:100C9000184603B05DF804FB00B583B001900091E5
:100CA0001022002101980BF009FB019B194604203A
:100CB000FFF7CAFA0346002B02D0009A12681A60A6
:100CC000019B034ADA6000BF03B05DF804FB00BF7C
:100CD000541B010800B583B001900091019B1B6873
:100CE0000098984700BF03B05DF804FB00B583B0DF
:100CF00001900091019B19460420FFF7A5FA0346D5
:100D0000002B02D0009A12681A6000BF03B05DF891
:100D100004FB82B0019000BF02B0704700B583B001
:100D20000190019BDB68002B04D0019BDB689B6872
:100D300001989847019B184603B05DF804FB00B585
:100D400083B00190019B143300211846FFF78DFFFB
:100D5000019B184603B05DF804FB00B583B0019019
:100D6000019B14331846FFF76FFF019B184603B031
:100D70005DF804FB30B583B00190019B01241D4652
:100D8000002C05DB284600F01EF82C35013CF7E767
:100D9000019B00229A65019B0022DA65019B0022DB
:100DA00083F86020019B184603B030BD00B583B0C6
:100DB0000190019B04331846FFF7CFFF019B1846B3
:100DC00003B05DF804FB00B583B00190019B0022E5
:100DD0001A60019B04332822002118460BF06EFA9A
:100DE000019B04331846FFF7AAFF019B184603B086
:100DF0005DF804FB00B583B001900091019B012BCD
:100E00000CD1009B4FF6FF72934207D10548FFF7C4
:100E1000B1FF054A0549034801F07EFC00BF03B05D
:100E20005DF804FB680F002098010020310E0008D7
:100E300010B582B00190019B002B0AD0019B03F1F9
:100E40005804019B9C4204D02C3C2046FFF7AEFF87
:100E5000F7E7019B184602B010BD08B54FF6FF71C9
:100E60000120FFF7C7FF08BD00B585B003900291D0
:100E70000192039B1B6810331B68019A0299039827
:100E800098470346184605B05DF804FB00B583B0EB
:100E90000190019B1B6818331B6801989847034613
:100EA000184603B05DF804FB00B583B00190019BC8
:100EB0001B6828331B68019898470346184603B0FF
:100EC0005DF804FB82B001900B468DF803304FF0C3
:100ED000FF33184602B0704782B001900B46ADF860
:100EE00002301123184602B0704782B00190009181
:100EF00000BF02B07047000000B583B00190054A02
:100F0000019B1A60019800F045F8019B184603B058
:100F10005DF804FBBC1C010800B583B0019001988A
:100F2000FFF7EAFF019801F081FC019B184603B02E
:100F30005DF804FB00B583B00190019B1B68103382
:100F40001B6801220021019898470346184603B008
:100F50005DF804FB00B583B00190019B1B68103362
:100F60001B68002200210198984700BF03B05DF87C
:100F700004FB000000B583B00190019800F010F868
:100F8000034A019B1A60019B184603B05DF804FBFD
:100F9000BC1C010882B00190019B184602B070474A
:100FA00082B00190019B184602B0704782B0EFF307
:100FB00010830193019B03F00103002B0CBF01235D
:100FC0000023DBB2184602B07047000000B583B0C2
:100FD000FFF7ECFF03468DF8073072B6084B1B781D
:100FE000DBB2002B07D1074A9DF807301370044B82
:100FF00001221A7000E000BF03B05DF804FB00BFDF
:10100000CD0F0020CC0F002008B5FFF7CFFF03461F
:10101000002B04D036220749074800F0BBFD074BE0
:1010200000221A70064B1B78DBB2002B00D062B690
:1010300000BF08BD601B01088C1B0108CD0F0020FC
:10104000CC0F002082B001900091009B002B05D0B6
:10105000019B9B68019A12681A6005E0019B1A685F
:10106000019BDB6812041A6000BF02B0704700B534
:1010700085B0039001930B46ADF80A3013468DF806
:101080000930BDF90A301946039808F047FEBDF94A
:101090000A30B3F1FF3F0DD001990398FFF7D2FF5B
:1010A0000121039808F093FE9DF809301946039832
:1010B00008F07AFE00BF05B05DF804FB00B583B010
:1010C00001900B46ADF80230BDF9023000221946FE
:1010D000019800F004F800BF03B05DF804FB00B510
:1010E00085B003900B460192ADF80A30BDF90A10A5
:1010F000019B00220398FFF7BAFF00BF05B05DF81F
:1011000004FB000000B583B003460091ADF8063043
:10111000BDF90630B3F1FF3F23D018E0009BB3F9CF
:101120000030BDF906209A420ED1009B9A68BDF9A5
:1011300006301146184609F0D3F8BDF906300021F3
:10114000184609F05BF90DE0009B0C330093009BFF
:10115000B3F90030B3F1FF3FE0D1044800F060FE86
:1011600000E000BF03B05DF804FB00BFA81B01084E
:1011700000B583B001900091019A009B9A4201D181
:10118000019B10E0019BB3F1FF3F01D1009B0AE0FE
:10119000009BB3F1FF3F01D1019B04E0044800F044
:1011A0003FFE4FF0FF33184603B05DF804FB00BF6D
:1011B000BC1B010882B003460091ADF806300CE07C
:1011C000009BB3F90030BDF906209A4202D1009B82
:1011D0005B680AE0009B0C330093009BB3F900307E
:1011E000B3F1FF3FECD14FF0FF33184602B0704728
:1011F00000B585B003460091ADF806304FF0FF33DF
:101200000393BDF90630B3F1FF3F02D14FF0FF3336
:101210000EE0BDF9063000991846FFF7CBFF0390AA
:10122000039BB3F1FF3F02D1034800F0F9FD039B9C
:10123000184605B05DF804FBD01B010882B00346D8
:101240000091ADF806300CE0009BB3F90030BDF919
:1012500006209A4202D1009B9B680AE0009B0C3357
:101260000093009BB3F90030B3F1FF3FECD14FF096
:10127000FF33184602B0704700B585B003460091B1
:10128000ADF806304FF0FF330393BDF90630B3F1EC
:10129000FF3F02D14FF0FF330EE0BDF90630009959
:1012A0001846FFF7CBFF0390039BB3F1FF3F02D13A
:1012B000034800F0B5FD039B184605B05DF804FB3C
:1012C000F01B010808B500F02FFD094B1B884FF6F5
:1012D000FF72934204D100F041FD064800F0A0FDEA
:1012E0000121034800F050FD00F038FD00BF08BDAB
:1012F000CE0F0020101C010808B500F015FD084BAA
:101300001B88002B04D100F029FD064800F088FD61
:101310000121034800F05EFD00F020FD00BF08BD84
:10132000CE0F0020401C010808B500F0FDFC09F0BC
:101330009FFD00F013FD00BF08BD00002DE9F0493E
:1013400089B00190019B5B6893F83830002B40F026
:10135000C980019B1B681B689847019B1B689B69A0
:1013600098470590059B1B680793059B1B68002BFE
:1013700006D129225D495E4800F00CFC5D4B0793C5
:10138000059B5B680693059B5B68202B03D8059B38
:101390005B68032B06D82F225449554800F0FAFB0E
:1013A00020230693069B043B072202FA03F30493CF
:1013B000049B1F464FF000083B4644464FF0000197
:1013C0004FF00002620142EAD36259010B46144613
:1013D000DB1B64EB08044FF000014FF000026202D7
:1013E00042EAD35259020B461446DB1944EB080477
:1013F0004FF0000B4FF0000C4FEA841C4CEA936C4A
:101400004FEA831BBBEB030B6CEB040C1BEB0701DC
:101410004CEB0802079B1F464FF000087B1848EB77
:10142000020413F1FF3044F1FF31079B4FF0000439
:101430001A46234610F086F903460C46CDE90234DD
:10144000019B5B6800221A60019B5B6800225A6066
:10145000019B1B685B68019A5468984703462362A6
:10146000019B5A684FF000034FF00004C2E90A34B0
:10147000019B5B68079A9A604FF001034FF00004EC
:10148000069AA2F12000C2F1200104FA02F603FA42
:1014900000F0064323FA01F10E4303FA02F52A464F
:1014A000019B5B68013ADA60019B5B68049A1A61F0
:1014B000019B5A68DDE90234C2E90634019B5A688F
:1014C0004FF000034FF00004C2E90C34019B5B684D
:1014D000012283F83820019800F00EF8019800F0FE
:1014E000EFF900E000BF09B0BDE8F089681C010811
:1014F0008C1C010840420F002DE970488DB001900E
:10150000019B5B680993019B1B685B689847089087
:10151000019B5B681B6A089A9A4200F02181099B33
:101520001B6A089AD21A099BDB6813404FF000042B
:10153000CDE90634099B089A1A62099B9B688A4A7E
:10154000934204D1DDE90634CDE90A34FCE0099B7D
:101550009B68B3F5004F78D1DDE906562B4634463B
:101560004FF000014FF00002620142EAD3625901DC
:101570000B4614465B1B64EB06044FF000014FF072
:101580000002620242EAD35259020B4614465B192A
:1015900044EB06044FF000014FF00002A20142EAC2
:1015A00093629901C91A62EB04024B1942EB0604DB
:1015B000CDE90234DDE902124FF000034FF00004E0
:1015C000CB0B43EA4243D40BCDE90A34099BD3E960
:1015D0000A56DDE90A124FF000034FF00004D4036D
:1015E00044EA5144CB03DDE90212C91A62EB04025A
:1015F0008B4694461BEB05034CEB0604099AC2E9A3
:101600000A34099BD3E90A12099B9B684FF0000436
:10161000A24208BF9942C0F09780DDE90A34591C04
:1016200044F10002CDE90A12099BD3E90A12099B91
:101630009B681D464FF000060B4614465B1B64EB8F
:101640000604099AC2E90A347EE0DDE906562B4613
:1016500034464FF000014FF00002620142EAD362CB
:1016600059010B4614465B1B64EB06044FF0000166
:101670004FF00002620242EAD35259020B4614466E
:101680005B1944EB06044FF000014FF00002A20189
:1016900042EA93629901C91A62EB04024B1942EBC8
:1016A0000604CDE90434099B9B684FF000041A46F8
:1016B0002346DDE9040110F045F803460C46CDE968
:1016C0000A34099BD3E90A12099B9B684FF0000476
:1016D0000A9804FB00F50B9803FB00F028440A9DD0
:1016E000A5FB033420440446DDE90456ED1A66EBFD
:1016F0000406AB46B4461BEB01034CEB0204099A0B
:10170000C2E90A34099BD3E90A12099B9B684FF08E
:101710000004A24208BF994216D3DDE90A34591CDD
:1017200044F10002CDE90A12099BD3E90A12099B90
:101730009B681D464FF000060B4614465B1B64EB8E
:101740000604099AC2E90A34099BD3E90C12DDE9BF
:101750000A345D1844EB0206099AC2E90C5600E00F
:1017600000BF0DB0BDE8708840420F002DE9104861
:1017700089B00390CDE90023039B5B680693069B29
:10178000D3E90CBCDDE900120B461446B3EB0B03A6
:1017900064EB0C04CDE90434039B5B681B6907937D
:1017A000039B5B68D3E90612DDE90434A24208BF5B
:1017B000994255D3069B9B682F4A93420CD1049BB8
:1017C0000793039B5B681B69079A9A4248D9039B5E
:1017D0005B681B69079343E0069B9B68B3F5004F6A
:1017E0001CD1DDE904344FF000004FF00001E103AB
:1017F00041EA5341D803204A4FF000030FF0A2FF03
:1018000003460C460793039B5B681B69079A9A4241
:1018100026D9039B5B681B69079321E0069B9B68A5
:101820004FF00004049A04FB02F1059A03FB02F254
:101830000A440499A1FB0301531819460E4A4FF0BC
:1018400000030FF07FFF03460C460793039B5B6882
:101850001B69079A9A4203D9039B5B681B6907932C
:10186000069B1A6A079B1A44069BDB6813401846BE
:1018700009B0BDE8108800BF40420F0084B003905B
:1018800002910192019A039B9A420BD9029A019B01
:101890009A4203D2029A039B9A4201D201230CE09E
:1018A00000230AE0029A039B9A4205D2029A019B06
:1018B0009A4201D3012300E00023184604B0704788
:1018C00010B58AB00190019B5B6809930198FFF7FE
:1018D00013FE019B5B685B68002B42D0019B5B6839
:1018E000D3E90C34CDE90634019B5B685B68D3E92E
:1018F0000034CDE90434DDE90434DDE90612A24206
:1019000008BF994204D3019B1B685B69984736E086
:10191000DDE904230198FFF729FF0390099B1B6A67
:10192000039A9A4204D1019B1B685B69984726E0A1
:10193000019B1B681B6903989847019B1B685B68A8
:1019400098470290099B1B6A039A02991846FFF771
:1019500095FF0346002B12D0019B1B685B699847DB
:101960000DE0099B1A6A099B1B691A44099BDB68F5
:1019700013400893019B1B681B69089898470AB09D
:1019800010BD10B584B0019000F0CEF9019B1B682A
:10199000DB689847019B5B685B68002B27D0019848
:1019A000FFF7AAFD019B5B685B68D3E90034019AED
:1019B0005268D2E90C12A24208BF994219D3019B86
:1019C0005B685B680393019B5B685A68019B5B687B
:1019D000D2685A60019B5B681B68002BDAD0019BC0
:1019E0005B681B68039A926810469847D2E700BF6D
:1019F00000E000BF0198FFF763FF00F0AFF900BF00
:101A000004B010BD10B582B00190019800F005F847
:101A100003460C46184602B010BD10B582B00190C6
:101A20000198FFF78BFC00F07FF90198FFF764FD48
:101A300000F094F9019B5B68D3E90C341846214609
:101A400002B010BD014B1846704700BFAC1C010826
:101A500008B5054B1B68002B03D0034B1B680348DC
:101A6000984700BF08BD00BF9C010020AC1C0108C6
:101A700082B001900023184602B0704782B00190F6
:101A80000023184602B0704700B585B00190019B55
:101A90001B6810331B6801220021019898470390AE
:101AA000039B002B01DA039B11E0019B1B681033A1
:101AB0001B6802220021019898470290019B1B6835
:101AC00010331B680022039901989847029B18461F
:101AD00005B05DF804FB00B583B07346019000913A
:101AE0001A460099019800F005F80346184603B01D
:101AF0005DF804FB00B587B00390029101920023CA
:101B000005930299039809F0D1FF0590059B1846AB
:101B100007B05DF804FB00B587B003900291019215
:101B200000230593019A029903980AF025FC059079
:101B3000059B184607B05DF804FB00B583B07346FB
:101B4000019000911A460099019800F004F800BF36
:101B500003B05DF804FB00B585B0039002910192DB
:101B60000299039809F038FC00BF05B05DF804FB4A
:101B700000B587B003900291019200230593019A6A
:101B80000299039809F0D2F90590059B184607B011
:101B90005DF804FB00B585B003900291019200F05E
:101BA000C3F8019B029A0399044800F05CF800F026
:101BB0001CF800BF05B05DF804FB00BF001D010864
:101BC00082B001900091009B002B05D0019B9B6887
:101BD000019A12681A6005E0019B1A68019BDB6894
:101BE00012041A6000BF02B0704700B58BB000F05D
:101BF0009BF801AB05211846FFF760FA0023099313
:101C000012E001AB01211846FFF7DAFF962000F041
:101C10005DFE01AB00211846FFF7D2FF962000F0D1
:101C200055FE099B01330993099B032BE9DD002332
:101C3000089314E001AB01211846FFF7C1FF4FF4F0
:101C4000C87000F043FE01AB00211846FFF7B8FF53
:101C50004FF4C87000F03AFE089B01330893089BCC
:101C6000032BE7DDCAE70FB400B583B005AB0193E2
:101C70000199049800F006F800BF03B05DF804EB8A
:101C800004B0704700B5A5B00190009100F04CF889
:101C900002A8009B019A80210DF026FB2290229B36
:101CA000002B1ADD104B1B68002B04D103220221EC
:101CB0000E4808F0CFFE002323930AE002AA239BDC
:101CC00013441B781946094807F020FF239B013372
:101CD0002393239A229B9A42F0DB00F03FF800BF47
:101CE00025B05DF804FB00BF4C170020A0290020A0
:101CF00082B0EFF310830193019B03F00103002BEB
:101D00000CBF01230023DBB2184602B0704782B03B
:101D1000EFF305830193019B002B14BF01230023E4
:101D2000DBB2184602B0704708B5094B1B68B3F127
:101D3000FF3F04D1552207490748FFF72BFFFFF764
:101D400045F9034B1B680133014A136000BF08BD0E
:101D500010100020341D0108581D010808B5094B5A
:101D60001B68002B0BD0074B1B68013B054A136017
:101D7000044B1B68002B03D1FFF746F900E000BFBE
:101D800008BD00BF1010002088B001900B46ADF8D0
:101D90000230019B0493049BD3E85F3F0393039BB2
:101DA0009AB2BDF802301344ADF81E30BDF81E30B3
:101DB000ADF81C30019B0693BDF81C200699C1E8C4
:101DC000532F0593059B002BE3D1BDF81E30184619
:101DD00008B0704788B001900B46ADF80230019B07
:101DE0000493049BD3E85F3F0393039B9AB2BDF82F
:101DF0000230D31AADF81E30BDF81E30ADF81C30DD
:101E0000019B0693BDF81C200699C1E8532F05934A
:101E1000059B002BE3D1BDF81E30184608B0704773
:101E20000FB400B583B00B4B1B78002B0BD1094BC3
:101E300001221A7005AB019301990498FFF722FF64
:101E4000012000F071FC00BF03B05DF804EB04B0AA
:101E5000704700BF1410002008B5044B1B684FF0FA
:101E6000FF31184603F0D2FA00BF08BD5828002001
:101E700008B5034B1B68184603F0FCFA00BF08BD09
:101E80005828002084B00390029101926FF01C0347
:101E9000184604B0704782B001906FF015031846E1
:101EA00002B0704782B001900123184602B070471B
:101EB00082B001900023184602B0704700B585B08B
:101EC000039001930B46ADF80A301346ADF8083085
:101ED000039B1846FFF74EF80C4A039B1A600C4B05
:101EE0001B68002B0CD1BDF90820BDF90A3019463A
:101EF000084808F0AFFD0199064808F0D1FE00E05F
:101F000000BF039B184605B05DF804FB301F0108B5
:101F10004C170020A029002000B587B00390029143
:101F20000192029B049300230593059A019B9A4218
:101F30000BD2049A059B13441B781946054807F0F9
:101F4000E5FD059B01330593EFE7019B184607B0BC
:101F50005DF804FBA029002000B587B00390029132
:101F60000192029B0593019B002B01D1002307E006
:101F7000054807F0ADFD0346DAB2059B1A70012350
:101F8000184607B05DF804FBA029002000B585B015
:101F900001900B46ADF802300023ADF80E30BDF8CD
:101FA000023003F00103002B07D0174808F092FE1F
:101FB0000346002B01D0012300E00023002B05D0B5
:101FC000BDF80E3043F00103ADF80E30BDF802301D
:101FD00003F01003002B07D00B4808F0A7FE0346C0
:101FE000002B01D0012300E00023002B05D0BDF819
:101FF0000E3043F01003ADF80E30BDF90E30184628
:1020000005B05DF804FB00BFA029002082B001905C
:102010000023184602B0704782B001900023184692
:1020200002B0704708B5154B1B78BFF35B8FDBB26E
:1020300003F00103002B0CBF01230023DBB2002BB4
:1020400019D00E4800F094FB0346002B14BF012367
:102050000023DBB2002B0ED04FF4165303220221D3
:102060000748FFF72BFF054800F0B8FB054A064973
:10207000034800F051FB024B184608BDA410002095
:10208000A0100020980100206128000800B585B04C
:1020900001900198FFF7C0FF0390039B002B01D034
:1020A000039B0BE00198FFF7B1FF0390039B002B0C
:1020B00001D0039B02E0FFF7B5FF0346184605B0C9
:1020C0005DF804FB00B585B00190019B3F2B01DD5D
:1020D000002315E00C4A019B52F823300393039B25
:1020E000B3F1FF3F0BD1019B022B08DC0198FFF7F6
:1020F000CDFF03900449019B039A41F82320039BE1
:10210000184605B05DF804FBA001002000B583B0BF
:102110000190019800F006F80346184603B05DF8F8
:1021200004FB000000B585B001900198FFF7CAFFDD
:102130000390144A019B002142F82310039B002BBB
:1021400007D108F027FF0246092313604FF0FF3341
:1021500013E0039B1B6814331B6803989847029095
:10216000029B002B08DA08F015FF0246029B5B4237
:1021700013604FF0FF3300E00023184605B05DF810
:1021800004FB00BFA001002082B00190002318468C
:1021900002B0704700B58BB003900291019200939A
:1021A000FFF7B5FD0346002B07D1FFF7A1FD03465E
:1021B00083F00103DBB2002B01D0012300E00023F8
:1021C000002B02D04F48FFF72BFE019B002B07DAB4
:1021D00008F0E0FE0246162313604FF0FF338DE057
:1021E000019B0693002309930398FFF7CDFF034655
:1021F000002B56D0444A039B13441B788DF82330A0
:1022000000230793079A069B9A424ADA079B029A91
:1022100013441B780A2B3AD19DF823300D2B36D06E
:10222000079A099B9A421EDD099B029AD118079AC8
:10223000099BD31A1A46039800F06AF80590059B8B
:10224000002B02DA4FF0FF3358E0099A059B134444
:102250000993099A079B9A424ADB2B4A039B134432
:102260009DF823201A7001222849039800F050F8A5
:102270000590059B002B02DA4FF0FF333EE0059BF3
:10228000002B37DD204A039B13440D221A70079B55
:10229000029A13441B788DF82330079B0133079370
:1022A000B0E7099A069B9A4226DA099B029AD1184E
:1022B000069A099BD31A1A46039800F029F804904D
:1022C000049B002B02DA4FF0FF3317E0099A049BBE
:1022D00013440993099B002B0FDD099B013B029AD4
:1022E00013441978084A039B13440A461A7004E001
:1022F00000BF02E000BF00E000BF099B18460BB022
:102300005DF804FB8C1D010860100020C81D010849
:1023100000B587B00390029101920398FFF7D2FEB7
:102320000590059B002B07D108F034FE02460923D7
:1023300013604FF0FF3315E0059B1B680C331B68DF
:10234000019A0299059898470490049B002B08DA9B
:1023500008F020FE0246049B5B4213604FF0FF33FF
:1023600000E0049B184607B05DF804FB00B589B097
:102370000390029101920093FFF7C9FC0346002BE2
:1023800007D1FFF7B5FC034683F00103DBB2002B56
:1023900001D0012300E00023002B02D03E48FFF7CC
:1023A0003FFD019B002B07DA08F0F4FD02461623DF
:1023B00013604FF0FF336BE0002307930398FFF7A0
:1023C000E3FE0346002B5CD00DF1170301221946F2
:1023D000039800F065F80690069B002B02DA4FF098
:1023E000FF3355E0069B002B01D1079B50E09DF881
:1023F00017300D2B05D1294A039B13441B780A2B58
:1024000009D19DF817300A2B10D1244A039B13449D
:102410001B780D2B0AD09DF81710204A039B1344FC
:102420000A461A70029B0A221A7027E09DF817309C
:102430000D2B05D1194A039B13441B780A2B09D095
:102440009DF817300A2B0DD1144A039B13441B78B7
:102450000D2B07D19DF81710104A039B13440A4611
:102460001A70B1E79DF817100C4A039B13440A46F3
:102470001A709DF81720029B1A7000BF0123079362
:1024800005E0019A0299039800F00AF80790079B6B
:10249000184609B05DF804FBCC1D0108201000208F
:1024A00000B587B00390029101920398FFF70AFEEE
:1024B0000590059B002B07D108F06CFD024609230F
:1024C00013604FF0FF3315E0059B1B6808331B6852
:1024D000019A0299059898470490049B002B08DA0A
:1024E00008F058FD0246049B5B4213604FF0FF3337
:1024F00000E0049B184607B05DF804FB00B583B00C
:102500000190019800F005F80346184603B05DF805
:1025100004FB00B585B001900198FFF7D3FD03904F
:10252000039B002B06D108F035FD024609231360FA
:10253000002312E0039B1B681C331B680398984719
:102540000290029B002B07DA08F024FD0246029B52
:102550005B421360002300E0029B184605B05DF863
:1025600004FB00B587B0039002910192019A029991
:10257000039800F006F80590059B184607B05DF833
:1025800004FB00B587B00390029101920398FFF716
:1025900099FD0590059B002B07D108F0FBFC024636
:1025A000092313604FF0FF3315E0059B1B681033C0
:1025B0001B68019A0299059898470490049B002B88
:1025C00008DA08F0E7FC0246049B5B4213604FF018
:1025D000FF3300E0049B184607B05DF804FB00B52C
:1025E00083B0019000910099019800F005F803462E
:1025F000184603B05DF804FB00B585B0019000916A
:102600000198FFF75FFD0390039B002B07D108F0B3
:10261000C1FC0246092313604FF0FF3319E0039B0E
:102620001B681C331B68039898470346002B02D095
:102630004FF4005201E04FF40042009B5A60039BAC
:102640001B6828331B68039898470246009B1A6151
:102650000023184605B05DF804FB08B5012000F022
:1026600063F8000010B485B001901B4B1B68039306
:10267000194B1A68019B13440293EFF308831C461D
:1026800023461A46029B93422CBF01230023DBB250
:10269000002B05D0114B0C221A604FF0FF3315E0D0
:1026A0000F4B1B68002B0DD00E4B1A680C4B1B6890
:1026B0001344029A9A4205D3084B0C221A604FF039
:1026C000FF3303E0044A029B1360039B184605B0E6
:1026D0005DF8044B704700BFA00200204C2A002088
:1026E0001C1000201810002000B583B00190094B89
:1026F0001B689B68184608F093FD064B1B68DB6857
:10270000184608F08DFD019B002B01D0FFF76DFAF4
:10271000FEE700BF5403002084B0039002910192B1
:102720000123184604B0704700B583B001900198AA
:10273000FFF7DAFF00BF03B05DF804FB82B0019041
:102740000123184602B0704700B583B0019001988C
:1027500000F04AFD00BF03B05DF804FB00B583B094
:102760000190019800F050FD00BF03B05DF804FB3C
:1027700000B585B00190019B0393039B1B7803F088
:102780000303012B01D100231FE0FFF765FB039B2F
:102790001B7803F00303012B03D1FFF769FB002330
:1027A00013E0039B1B7803F00303002B05D040F2DA
:1027B000275208490848FFF7EDF9039B1B7843F0BF
:1027C0000203DAB2039B1A700123184605B05DF8C4
:1027D00004FB00BF141E01083C1E010800B585B0B3
:1027E0000190019B0393039B1B7803F00303022BCF
:1027F00005D040F22F520B490B48FFF7CBF9039B52
:102800001B785BB223F003035BB243F001035BB2BE
:10281000DAB2039B1A70FFF72BFB00BF05B05DF81F
:1028200004FB00BF141E0108641E010800B583B03C
:102830000190019809F032F900BF03B05DF804FB84
:1028400000B583B00190019809F028F900BF03B0EA
:102850005DF804FB014B1846704700BF201F0108BC
:1028600000B583B00190064A019B1A60019B18468F
:10287000FEF742FB019B184603B05DF804FB00BF66
:10288000301F010800B583B001900198FFF7E8FF01
:102890000198FFF7CBFF019B184603B05DF804FBDE
:1028A00000B583B00190DDED017A9FED077A67EE08
:1028B000877AFDEEE77A17EE900A00F017F800BF6E
:1028C00003B05DF804FB00BF0024744900B583B079
:1028D0000190019B4FF47A7202FB03F3184600F05B
:1028E00005F800BF03B05DF804FB000000B587B039
:1028F0000190FFF7A7F805900598FFF783F804907B
:10290000019B174A82FB03129211DB17D31A039320
:10291000039B002B06DDFFF7EBF90346002B01D0EC
:10292000012300E00023002B07D0FEF7CBFC039B24
:10293000184604F015FCFEF7DFFC0598FFF762F877
:102940000246049BD21A019B9A4234BF0123002302
:10295000DBB2002B00D0F0E700BF07B05DF804FB4E
:10296000D34D621000B583B00190019800F080F85B
:10297000019B00221A620021019800F005F8019BDA
:10298000184603B05DF804FB00B587B001900091D4
:10299000019B04331C220021184609F08FFC02AB76
:1029A00000221A605A609A60DA60009B002B01D006
:1029B000009B00E00E4B0293019B043304931C2305
:1029C00005930B23039302AB184602F0E1FC024689
:1029D000019B1A60019B1B68002B04D13222054920
:1029E0000548FFF7D7F800BF07B05DF804FB00BF4C
:1029F000741F0108901F0108AC1F010800B585B0C5
:102A000001900091019B1B680099184602F0FEFCA2
:102A10000390039B002B04D1019B1B6A5A1C019B52
:102A20001A62039B184605B05DF804FB00B583B03D
:102A30000190019B1B6A5A1E019B1A62019B1B6835
:102A4000184602F017FD0346184603B05DF804FB74
:102A500000B583B00190019B1B68184602F03AFD57
:102A6000019800F00BF8019B184603B05DF804FBD9
:102A700082B00190019B184602B0704782B001906D
:102A8000019B184602B0704700B583B001900091D9
:102A9000019800F05CF84FF6FF720099019800F081
:102AA00005F8019B184603B05DF804FB00B589B03A
:102AB000039002911346ADF80630039B04331022B5
:102AC0000021184609F0FAFB04AB00221A605A6094
:102AD0009A60DA60039B0433069310230793BDF8D2
:102AE0000630029904AA184602F01EFF0246039B14
:102AF0001A60039B1B68002B04D12C220349044855
:102B0000FFF748F800BF09B05DF804FBE81F0108B3
:102B10000820010800B583B00190019B1B6818468E
:102B200002F04AFF0346184603B05DF804FB00B507
:102B300083B00190019B1B68184602F069FF019861
:102B400000F00BF8019B184603B05DF804FB82B05F
:102B50000190019B184602B0704782B00190019B22
:102B6000184602B0704700004FF0100300F00CB898
:102B70004FF0200300F008B84FF0300300F004B825
:102B80004FF0400300F000B8EFF308804FF004016D
:102B900072460A4201D0EFF309809C46244902683C
:102BA0000A60043142680A60043182680A600431B4
:102BB000C2680A600431F0C147460F6004314F46D5
:102BC0000F60043157460F6004315F460F600431D7
:102BD00002690A60083142690A60043182690A6048
:102BE0000431C2690A600431034620334FF4007691
:102BF000324200D0043375464FF01006354200D102
:102C000048330C46103C2360EFF309820A6004311C
:102C1000EFF308820A60043172460A600431EFF370
:102C200014820A60034B60460149034A9847FEE755
:102C3000841700203D2C0008A802002000B587B0B2
:102C400003900291019200F047F90021314800F011
:102C500053F9039B202B0ED0202B02D8102B05D02C
:102C600018E0302B0CD0402B0FD013E000212A4865
:102C700000F042F913E00021284800F03DF90EE091
:102C80000021274800F038F909E00021254800F02C
:102C900033F904E00021244800F02EF900BF0021A0
:102CA000224800F029F900F04FF80021204800F0F8
:102CB00023F9019B5B69184600F0F0F800211D48DC
:102CC00000F01AF9019B9B69184600F0E7F8002113
:102CD000194800F011F9019B1B6B0593059800F052
:102CE000CBF80021154800F007F9019BDB6A05933A
:102CF000059800F0C1F80021114800F0FDF8019B93
:102D00009B6A0593059800F0B7F800210D4800F084
:102D1000F3F8FEE714200108402001084C200108C8
:102D20005C20010868200108742001088420010843
:102D300090200108A8200108B0200108C020010847
:102D4000D0200108E020010800B589B03B493C488B
:102D500000F0D2F83B493C4800F0CEF801AB00222D
:102D60001A605A609A60DA601A615A619A61354B4A
:102D7000DB6A0193334B9B6ADBB20293314B9B6A54
:102D80001B0ADBB203932F4B9B6A1B0C9BB2049371
:102D90002C4B1B6B05932B4BDB6B0693294B5B6A10
:102DA000079301AB1946294800F0A6F8029B03F0EF
:102DB0008003002B03D02649264800F09DF8039B92
:102DC00003F08003002B03D02349244800F094F83B
:102DD0001A4BDB6C03F00803002B13D000212048B2
:102DE00000F08AF8154B1B6D03F00103002B04D093
:102DF00000211C4800F080F80CE000211A4800F087
:102E00007BF807E00021194800F076F80021164809
:102E100000F072F8094BDB6C03F00403002B04D0C4
:102E20000021134800F068F803E00021114800F089
:102E300063F800BF09B05DF804FB00BF84170020F1
:102E40000021010800ED00E0AC210108B8210108D3
:102E500034ED00E0F821010838ED00E0042201081B
:102E60001022010820220108302201084422010812
:102E7000542201086022010800B583B0019005E0EA
:102E8000019800F00BF8019B9B680193019B002BBC
:102E9000F6D100BF03B05DF804FB000000B589B0B7
:102EA0000190019B5B780393019BDB6B0493019B77
:102EB0005B6B0593019B1B6B0693019B9B6B0793BD
:102EC00003AB1946034800F017F800BF09B05DF8DE
:102ED00004FB00BF6C22010808B5054B1B68002BE2
:102EE00004D103220221034807F0B4FD00BF08BD4E
:102EF0004C170020A029002000B589B00190009156
:102F000000230793002306930023059302AB0022BE
:102F10001A605A601A722EE0079B019A13441B78BC
:102F2000252B1DD1059B5A1C05929B00009A13442A
:102F30001B6802AA1146184600F02AF807230693D8
:102F40000AE002AA069B13441B7819460F4806F0B4
:102F5000DDFD069B013B0693069B002BF1DA07E0A3
:102F6000079B019A13441B781946084806F0CEFDCA
:102F7000079B01330793079B019A13441B78002B8F
:102F8000CAD100BF09B05DF804FB00BFA029002032
:102F900010B489B001900091154B03AC0FCB84E8BD
:102FA0000F0000230793009B002B1CD007230793DF
:102FB00015E0079B9B000F2202FA03F31A46019BC0
:102FC0001A40079B9B00DA40079B00990B4408A915
:102FD0000A4412F8142C1A70079B013B0793079BB5
:102FE000002BE6DA00E000BF09B05DF8044B704743
:102FF0009C22010882B0134B0193124BC3F1005382
:1030000003F5C0330093009BB3F5806F28BF4FF4E6
:1030100080630D4A13600C4B1B68009AD31A019A07
:1030200013440A4A1360084B1B68009AD31A009392
:10303000074A009B1360074A019B136000BF02B060
:10304000704700BF502A0020AC100020A8100020BC
:103050001C1000201810002084B0104B9B680293B5
:103060004FF000530193002303930CE0039B9B005C
:10307000029A1A44039B9B0001990B4412681A6040
:10308000039B01330393039B642BEFDD034B4FF052
:1030900000529A6000BF04B0704700BF00ED00E02E
:1030A00000BF704700B583B0124B134A1A61114B31
:1030B0004FF480525A610F4B4822DA600D4B0F4A91
:1030C0009A600C4B18229A610A4B0D4A1A60094A01
:1030D00000210C4803F098FD0190019B002B02D1C8
:1030E0000948FEF79DFE00F043FE00BF03B05DF807
:1030F00004FB00BFA428002028180020D8170020B7
:10310000AC2201081D310008B822010808B5FFF7FC
:10311000C7FFFDF721FA0346184608BD08B51F4B47
:103120001F4A1A601D4B0B225A601C4B1C22DA608E
:103130001A4B1C4A9A60194802F02AF902461A4BA7
:103140001A601A4B1A4A1A60184B0B225A60174B16
:103150001C22DA60154B174A9A60144802F018F9DD
:103160000246154B1A60154B154A1A60134B0B2279
:103170005A60124B1C22DA60104B124A9A600F48B8
:1031800002F006F90246104B1A6008F0D5FB002148
:103190000020FFF7BBFF00BF08BD00BF9428002040
:1031A000D42201085C28002058280020482800204C
:1031B000E42201087828002020180020C8280020D8
:1031C000F42201082C2800202828002008B5FFF749
:1031D00011FFFFF741FF06F035FF00F05FFDFFF73D
:1031E00061FF00BF08BD000000B583B00190054B32
:1031F0001B684FF0FF31184602F008F900BF03B01A
:103200005DF804FB2018002000B583B00190044B4A
:103210001B68184602F02EF900BF03B05DF804FBEE
:103220002018002000B583B0019000F00BF9FCE7F6
:1032300000B585B00190009103F06EFD0390019BF5
:10324000013B042B30D801A252F823F06132000870
:103250007532000883320008913200089D32000860
:10326000009803F02FFD0346009A01991248FEF7DB
:10327000D7FD1FE0009B039A01991048FEF7D0FD8F
:1032800018E0009B039A01990D48FEF7C9FD11E073
:10329000039A01990B48FEF7C3FD0BE0039A0199CD
:1032A0000948FEF7BDFD05E0039A01990748FEF7BE
:1032B000B7FD00BFFEE700BF00230108502301084F
:1032C000A8230108102401086C240108CC2401085B
:1032D00082B00190019B0633052B1BD801A252F846
:1032E00023F000BF113300080D3300080933000834
:1032F0000533000801330008FD320008074B0AE0DF
:10330000074B08E0074B06E0074B04E0074B02E0E1
:10331000074B00E0074B184602B07047082501082C
:1033200020250108542501086C2501087C25010889
:1033300094250108B025010800B583B001900198DB
:10334000FFF7C6FF03461A4601990348FEF768FDDA
:1033500000BF03B05DF804FBB825010800B583B0D9
:10336000019000910098FFF7B3FF0346009A01997E
:103370000348FEF755FD00BF03B05DF804FB00BF36
:10338000D025010800B583B0019000910098FFF7A7
:103390009FFF0346009A01990348FEF741FD00BFD5
:1033A00003B05DF804FB00BF1C26010800B583B024
:1033B00001900091009B13F1110F05D0009A019923
:1033C0000348FEF72DFD00E000BF03B05DF804FBED
:1033D0003426010800B583B001900091009A01994C
:1033E0000348FEF71DFD00BF03B05DF804FB00BFFE
:1033F0006826010800B583B003F08EFC01900198A7
:1034000003F014FE00BF03B05DF804FB00B583B009
:103410000190019803F00AFE00BF03B05DF804FBC1
:1034200008B5FDF781FF00BF08BD08B5FEF77CFCBD
:10343000FDF748FFFFF7F4FFFDF75EFFFEF78EFC98
:1034400000BF08BD08B5024B1B689847FBE700BFEB
:10345000A4020020EFF30980816911F8021CB9BBB6
:1034600001B590E80F10E047BDE800508CE803007C
:10347000264B93E80600914208BF704741B91EF001
:10348000100F10D12249086820F0010008600AE0FE
:103490002CE9F00F1EF0100F08BF2CED108AC1F8B8
:1034A00038C081F822E002F041FF184B93E8060093
:1034B0001A6092F82210906B61F0FF0E1EF0100F50
:1034C00008BFB0EC108AB0E8F00F80F309887047AD
:1034D00010B5104A1368994206D852F821400FC817
:1034E000A047EFF30984206010BD10B502F0DAFBAD
:1034F000BDE81040EFF3098CBAE710B502F070FB9D
:10350000BDE81040EFF3098CB2E70000BC020020D8
:1035100034EF00E09027010800B583B00190019BD3
:10352000002B01D1002304E00199132002F086FF53
:103530000023184603B05DF804FB000000B587B017
:103540000190019800F09BF8EFF305830593059B2C
:10355000002B0BD1EFF310830493049B002B05D1B8
:10356000EFF311830393039B002B07D06FF005014A
:103570000020FFF7F3FE6FF0050307E0019B0293C5
:103580000298044B9C4600DF034600BF184607B074
:103590005DF804FB1935000884B003900291019294
:1035A00000BF04B0704784B0039002910192009371
:1035B00000BF04B0704784B003900291019200BF35
:1035C00004B0704784B0039002910192009300BF51
:1035D00004B0704782B00190009100BF02B0704704
:1035E00084B003900291019200BF04B0704700BF05
:1035F000704700BF704782B0019000BF02B07047B3
:1036000000BF704700BF704784B0039002910192E1
:1036100000BF04B0704782B0019000BF02B0704795
:1036200082B00190009100BF02B0704782B001905B
:1036300000BF02B0704782B0019000BF02B0704777
:1036400082B00190009100BF02B0704782B001903B
:10365000009100BF02B0704782B0019000BF02B07D
:10366000704782B0019000BF02B0704700BF704742
:1036700084B003900291019200BF04B0704782B001
:10368000019000BF02B0704700BF704782B0019048
:10369000009100BF02B0704782B0019000BF02B03D
:1036A000704782B0019000BF02B0704782B00190B5
:1036B00000BF02B0704782B00190009100BF02B01D
:1036C000704782B00190009100BF02B0704782B095
:1036D000019000BF02B0704782B00190009100BF1E
:1036E00002B0704782B0019000BF02B0704782B054
:1036F000019000BF02B0704782B00190009100BFFE
:1037000002B0704782B0019000BF02B0704782B033
:10371000019000BF02B0704784B003900291019203
:1037200000BF04B0704782B0019000BF02B0704784
:1037300082B0019000BF02B0704782B0019000BF1C
:1037400002B0704782B0019000BF02B0704782B0F3
:10375000019000BF02B0704782B0019000BF02B07C
:10376000704782B0019000BF02B0704782B00190F4
:1037700000BF02B0704784B003900291019200BF75
:1037800004B0704782B0019000BF02B0704784B0AF
:1037900003900291009313468DF8073000BF04B0E8
:1037A000704784B003900291019200BF04B070474B
:1037B00082B0019000BF02B0704782B001900091CA
:1037C00000BF02B0704782B00190009100BF02B00C
:1037D000704782B00190009100BF02B0704784B082
:1037E000039002910192009300BF04B0704784B02F
:1037F00003900291019200BF04B0704782B0019023
:1038000000BF02B0704782B00190009100BF02B0CB
:10381000704782B00190009100BF02B07047000075
:10382000034BDB681B0A03F007031846704700BF11
:1038300000ED00E000B583B0114BFF2283F8222099
:103840000F4B93F82230DBB263F0FF03DB43B3FA94
:1038500083F3C3F120030193FFF7E2FF0090009A86
:10386000019B9A4202D3009B01330193FE22019BEC
:103870009A40034BD2B2DA7700BF03B05DF804FB85
:1038800000ED00E008B5444B1B7A012B03D1FFF794
:10389000B0FE00235BE1404B1B7A002B06D04FF0BB
:1038A000FF30FFF749FD4FF0FF3350E19C2200212C
:1038B0003A4808F003FD3A4B5B6D472B06D86FF092
:1038C0000A00FFF739FD4FF0FF3340E1344BDB686E
:1038D000002B03D0324B1B8A002B06D14FF0FF3058
:1038E000FFF72AFD4FF0FF3331E12D4BDB682A4A09
:1038F000D3652B4B1A8A284BA3F85420284B9B687E
:10390000254A1364264BDA6A254B1B6B1946104671
:1039100000F07AFA0346002B04D0214BDB6A1E4AE2
:10392000C2F880301E4B5A691D4B9B6919461046E0
:1039300000F06AFA0346002B04D0194B5B69164A63
:10394000536704E0144BD3F88030134A5367144B89
:10395000DA69134B1B6A1946104600F055FA034604
:10396000002B04D00E4BDB690B4A936704E00A4B33
:10397000D3F88030084A9367094B5A6A084B9B6A10
:103980001946104600F040FA0346002B0AD0044BBB
:103990005B6A014AD3670AE0A8020020B002002057
:1039A000F02601086B4BD3F880306A4AD3676A4B24
:1039B0005B6B002B14D0684B586B674B5B6B1968C3
:1039C000654B5B6B9A68644B5B6BDB6800F07AFB62
:1039D0000346002B04D0604B5B6B5E4AC2F8843018
:1039E0005D4B9B6B002B14D05B4B986B5A4B9B6BC6
:1039F0001968594B9B6B9A68574B9B6BDB6800F0BF
:103A000061FB0346002B04D0534B9B6B514AC2F819
:103A10008830514BDB6B002B14D04F4BD86B4E4B87
:103A2000DB6B19684C4BDB6B9A684B4BDB6BDB68D1
:103A300000F048FB0346002B04D0474BDB6B454AA4
:103A4000C2F88C30444B1B6C002B14D0424B186CCA
:103A5000414B1B6C1968404B1B6C9A683E4B1B6CAE
:103A6000DB6800F02FFB0346002B04D03A4B1B6CA5
:103A7000384AC2F89030384B5B6C002B14D0364B70
:103A8000586C354B5B6C1968334B5B6C9A68324BE6
:103A90005B6CDB6800F016FB0346002B04D02E4B5A
:103AA0005B6C2C4AC2F894302B4B9B6C002B14D0CF
:103AB000294B986C284B9B6C1968274B9B6C9A6818
:103AC000254B9B6CDB6800F0FDFA0346002B04D00D
:103AD000214B9B6C1F4AC2F898301F4BDB6C002BAC
:103AE00014D01D4BD86C1C4BDB6C19681A4BDB6C6B
:103AF0009A68194BDB6CDB6800F0E4FA0346002B94
:103B000004D0154BDB6C134AC2F89C30124B1B6D72
:103B1000002B14D0104B186D0F4B1B6D19680E4BFA
:103B20001B6D9A680C4B1B6DDB6800F0CBFA0346EB
:103B3000002B04D0084B1B6D064AC2F8A030FFF7DB
:103B400079FE044B01221A72FFF753FD0023184639
:103B500008BD00BFA8020020F026010808B5044BEC
:103B60001B7A1846FFF747FD014B1B7A184608BD24
:103B7000A802002000B585B0424B1B7A012B06D06D
:103B80006FF00600FFF7D8FB4FF0FF3376E03D4BB8
:103B90009B6A002B14D13C4B9A6D002300213B48BB
:103BA00002F0D4FC0246374B9A62364B9B6A002BDC
:103BB00006D14FF0FF30FFF7BFFB4FF0FF335DE062
:103BC000314B5B6E002B18D02E4B9B6C002B14D10D
:103BD0002D4BDA6D002300212D4802F0B7FC024680
:103BE000284B9A64274B9B6C002B06D14FF0FF307B
:103BF000FFF7A2FB4FF0FF3340E0234B5B68254902
:103C0000184603F0B9F90346002B02D04FF0FF33FA
:103C100034E003F007FA02461A4B1A6103F0E0F9A8
:103C20000346002B02D04FF0FF3327E01A4802F082
:103C30005BF90390039B002B06D14FF0FF30FFF799
:103C40007BFB4FF0FF3319E0039802F05BFB0E4B58
:103C50001B6803F00103002B05D002230293029B93
:103C600083F3148804E003230193019B83F31488F6
:103C7000044B02221A72FFF7C5FC0023184605B058
:103C80005DF804FBA8020020F02601082532000898
:103C9000096F0008FB340008C402002000B585B09D
:103CA000FFF7A5FCEFF305830393039B002B0BD1D8
:103CB000EFF310830293029B002B05D1EFF31183E6
:103CC0000193019B002B06D06FF00500FFF734FB3A
:103CD0006FF0050314E00C4B9C46EFF3148313F0D4
:103CE000020F0AD113F0040FEFF308830CBF203B3F
:103CF000683B23F0070383F3098800DF034600BF16
:103D0000184605B05DF804FB8538000800B585B09D
:103D1000EFF305830393039B002B0BD1EFF3108389
:103D20000293029B002B05D1EFF311830193019BBA
:103D3000002B06D04FF0FF30FFF75DFC4FF0FF3354
:103D400010E0EFF314830093009B03F00103002BBA
:103D500003D1FFF703FF034604E0044B9C4600DF5A
:103D6000034600BF184605B05DF804FB5D3B000844
:103D700000B585B0FFF744FCEFF305830393039B85
:103D8000002B0BD1EFF310830293029B002B05D184
:103D9000EFF311830193019B002B06D06FF0050018
:103DA000FFF7CAFA6FF0050326E0FFF7AFFF0346FF
:103DB000022B0CD0124B1B68002B08D0104B1B6839
:103DC0005B68002B03D00E4B1B685B6898470D4B5C
:103DD0009C46EFF3148313F0020F0AD113F0040F83
:103DE000EFF308830CBF203B683B23F0070383F30A
:103DF000098800DF034600BF184605B05DF804FBE4
:103E0000D8280020753B000800B585B001900091CE
:103E1000019B002B0CD0019B03F00703002B07D163
:103E2000009B03F00703002B02D1009B172B06D841
:103E3000002200990198FFF7AFFB00231EE0019BD1
:103E40000393039B009A1A60039B10225A60019B04
:103E500008330293019A009B1344083B1A46029BC5
:103E60001A60029B1B6800221A60029B00225A60A3
:103E7000012200990198FFF78FFB0123184605B036
:103E80005DF804FB00B589B0039002910192039B99
:103E9000002B07D0029B002B04D0019B23F00303CF
:103EA000002B07D00023019A02990398FFF77BFBB0
:103EB00000235BE0029B08330293029B073323F04D
:103EC00007030293039B08330793079B1B681A465B
:103ED000079BD31A0593079B5B6823F00303059A9E
:103EE000D31A0593059A029B9A420ED2079B1B6830
:103EF0000793079B1B68002BE7D10023019A0299C7
:103F00000398FFF750FB002330E000BF039B5A6883
:103F1000029B1A44039B5A60079B5B68002B08D1E5
:103F2000029A019B1A43079B5A60079B083306932A
:103F300015E0079B5B6823F00302079B134404937F
:103F4000079B1A68049B1A60029A019B1A43049B00
:103F50005A60079B049A1A60049B08330693069BD9
:103F6000019A02990398FFF71EFB069B184609B0B9
:103F70005DF804FB00B587B001900091019B002B18
:103F800002D0009B002B06D1002200990198FFF778
:103F900012FB002335E0009B083B039300230493AE
:103FA000019B083305930EE0059B0493059B1B685A
:103FB0000593059B002B06D1002200990198FFF77D
:103FC000FAFA00231DE0059A039B9A42ECD1019B6B
:103FD0005A68059B5B6823F00303D21A019B5A6061
:103FE000049B002B03D1059B00225A6003E0059B34
:103FF0001A68049B1A60012200990198FFF7DBFA06
:104000000123184607B05DF804FB10B483B001909B
:104010000091019B009A53E8001F8A4202D8BFF327
:104020002F8F04E0481C43E8000404B1F3E70C467A
:104030002346184603B05DF8044B704710B483B0B4
:104040000190019B53E8002F12B9BFF32F8F04E0BA
:10405000511E43E8001000B1F4E714462346184609
:1040600003B05DF8044B704710B483B00190019B1E
:1040700053E8002F12B9BFF32F8F04E0116843E813
:10408000001000B1F4E714462346184603B05DF86B
:10409000044B704710B483B001900091019B009ACB
:1040A00019681160BFF35F8F53E8001F10688842E2
:1040B000F6D143E8002404B1F2E700BF03B05DF895
:1040C000044B704700B587B00390029101920093B2
:1040D000039B002B08D0029B002B05D0019B002BDB
:1040E00002D0009B002B01D1002330E0039B029AF9
:1040F0001A60039B00225A60039B019A9A60039BFB
:10410000009ADA60039B009A5A61029B019A02FBB3
:1041100003F3009A1A44039B1A61009B019A0299C7
:104120000398FFF74FFA08E0009A019B13440593A8
:10413000009B059A1A60059B0093029B013B02932A
:10414000029B002BF0D1009B00221A60012318462D
:1041500007B05DF804FB00B585B00190019B002B12
:1041600005D100210020FFF735FA00231AE0019B5A
:104170001A1D019B1B6819461046FFF746FF0246B1
:10418000019B1B689A4206D2019B14331846FFF725
:104190006BFF039001E00023039303990198FFF75D
:1041A00019FA039B184605B05DF804FB00B585B00D
:1041B00001900091019B002B09D0019BDB68009AC4
:1041C0009A4204D3019B1B69009A9A4208D36FF06C
:1041D000030200990198FFF703FA6FF0030319E057
:1041E000019B04331846FFF729FF0346002B08D034
:1041F000019B143300991846FFF74CFF00230393EB
:1042000002E06FF002030393039A00990198FFF70D
:10421000E7F9039B184605B05DF804FB10B483B0C2
:1042200001900B468DF80330019B9DF80320D3E8E5
:104230004F1FC3E8402F00B1F9E7CCB22346184620
:1042400003B05DF8044B704710B483B00190019B3C
:1042500053E8002F511C43E8001000B1F8E7144662
:104260002346184603B05DF8044B704710B483B082
:104270000190019B53E8002F12B9BFF32F8F04E088
:10428000511E43E8001000B1F4E7144623461846D7
:1042900003B05DF8044B7047014B5B6918467047EB
:1042A000A802002000B585B001900091019B1B6B16
:1042B000002B2ED0019B1B6B03930023029304E081
:1042C000039B0293039B5B680393039B002B05D026
:1042D000039BDA78009BDB789A42F1D3009B039A28
:1042E0005A60009B029A9A60039B002B03D0039BA9
:1042F000009A9A6002E0019B009ADA62029B002B0E
:1043000003D0029B009A5A600FE0019B009A1A6347
:104310000BE0009B00225A60009B00229A60019BE8
:10432000009ADA62019B009A1A63019B28331846AF
:10433000FFF78AFF00BF05B05DF804FB00B587B04A
:104340000190019B28331846FFF790FF0490049BCF
:10435000002B01D1002319E0019BDB6A05930FE0DC
:10436000059B023301211846FFF758FF03468DF8DD
:104370000F309DF80F30002B06D0059B9B680593EE
:10438000059B002BECD100E000BF059B184607B051
:104390005DF804FB82B001900091009B5B68002BEC
:1043A00005D0009B5B68009A92689A6003E0009BCE
:1043B0009A68019BDA62009B9B68002B05D0009BEA
:1043C0009B68009A52685A6003E0009B5A68019B00
:1043D0001A6300BF02B0704700B587B00190019B1F
:1043E0005B78002B00F0BC80019B9B78002B60D099
:1043F000019B0C330293029B1B680593059B5B7822
:10440000002B00F0AF8001990598FFF7C3FF019BD7
:1044100000225A70059B0C3301991846FFF7C6FE1F
:10442000059B9B68002B00F0A080059B9B685B7838
:10443000932B40F09A80059B0C331846FFF78BFEB8
:104440000190019B002B00F09080059801F04CFD3D
:10445000049000220021049801F0CCFF049801F0A0
:104460000DFF0390019B03F10C00039B08331B68B5
:104470001946059B5B6A1A4607F022FE019B07223C
:104480001A70019B01225A70019B00229A70039BB3
:104490000C331B68DAB2019BDA7001990598FFF7BB
:1044A00001FF039B08331B6819460598FFF78BF93A
:1044B0005BE0019B9B680593059B5B78002B53D0C9
:1044C000059B9B68002B40D0059B9B685B78832BEA
:1044D0003BD1019B5B6819460598FFF774F9059875
:1044E00001F002FD049000220021049801F082FFF7
:1044F000049801F0C3FE0390039B08331B68184621
:10450000019B03F10C01059B5B6A1A4607F0D8FD7D
:10451000039B0C331B68002B06D0039B0C331B68DA
:104520001A46019BDB781370039B08331B681946FE
:104530000598FFF768F9019B00225A70059B0C3320
:1045400001991846FFF732FE0FE0019B5B681946A0
:104550000598FFF738F901990598FFF7A3FE04E0E5
:1045600000BF02E000BF00E000BF07B05DF804FB41
:1045700000B58DB0039002910192039B002B02D0F5
:10458000029B002B06D16FF003010020FEF722FFF3
:104590000023F9E0029B033323F003030C3307935A
:1045A000039BB3FA83F2079BB3FA83F313441F2BE5
:1045B00006DC6FF003010020FEF70CFF0023E3E0B0
:1045C000039B079A02FB03F30693019B002B46D043
:1045D000019B1B680893019B9B680B93019B1B69C4
:1045E0000A93019B5B6905930B9B002B0FD00B9BE0
:1045F00003F00303002B03D1019BDB68332B11D89D
:104600006FF008010020FEF7E5FE0023BCE0019BEF
:10461000DB68002B06D06FF008010020FEF7DAFE01
:104620000023B1E00A9B002B0FD00A9B03F0030389
:10463000002B03D1059A069B9A4216D26FF009010E
:104640000020FEF7C7FE00239EE0059B002B0CD048
:104650006FF009010020FEF7BDFE002394E0002367
:10466000089300230B9300230A930B9B002B23D169
:10467000474BD3F8A030002B07D0454BD3F8A030E0
:104680001846FFF768FD0B9008E0414BD3F88030E7
:10469000012234211846FFF7F5FB0B900B9B002BF2
:1046A00006D16FF004010020FEF794FE00236BE0BA
:1046B00001238DF8273002E000238DF827300A9B74
:1046C000002B36D1324BDB6F002206991846FFF7DC
:1046D000D9FB0A900A9B002B20D16FF00401002027
:1046E000FEF778FE9DF8273003F00103002B13D06E
:1046F000274BD3F8A030002B07D0254BD3F8A030A0
:104700000B991846FFF752FD06E0214BD3F8803095
:104710000B991846FFF72EFC002335E0069A00217E
:104720000A9807F0CBFD9DF8273043F002038DF87F
:1047300027300B9B08221A700B9B01225A700B9B8F
:104740009DF827209A700B9B089A5A600B9B0022B9
:104750009A600B9B029A5A620B9B00229A620B9BF7
:104760000022DA620B9B00221A630B9B03F10C0000
:104770000A9B079A0399FFF7A5FC054B054A1A67A0
:104780000B98FEF7FFFF0B9B18460DB05DF804FB7E
:10479000A8020020D943000810B588B00390029108
:1047A000009313468DF80730039B0793079B002B5C
:1047B00006D0079B1B78082B02D1029B002B07D148
:1047C0006FF003010798FEF705FE6FF0030397E013
:1047D000079B5B78002B07D16FF002010798FEF76B
:1047E000F9FD6FF002038BE0079B9B68002B34D030
:1047F000079B9B685B78832B2FD102990798FEF764
:10480000E2FF079801F070FB069001220021069854
:1048100001F0F0FD069801F031FD0590059B08338D
:104820001B681846079B5B6A1A46029907F048FC0A
:10483000059B0C331B68002B06D0059B0C331B68B3
:104840001A469DF807301370059B08331B681946FC
:104850000798FEF7D8FF002352E0079B0C33184659
:10486000FFF779FC0490049B002B1FD0049B03F1FD
:104870000C00079B5B6A1A46029907F021FC049B17
:1048800007221A70049B01225A70049B00229A701E
:10489000049B9DF80720DA7004990798FFF702FD42
:1048A00002990798FEF78FFF002329E0009B002B59
:1048B00020D0009A02990798FEF773FFFFF7ECFCEF
:1048C00003461946079801F0DDFA0099932001F09C
:1048D000B5FDEFF309831C4623460593059B08337A
:1048E000029A1A60059B0C339DF807201A606FF03E
:1048F000010305E002990798FEF76BFF6FF00203D2
:10490000184608B010BD10B588B00390029101920E
:104910000093039B0793079B002B06D0079B1B78F4
:10492000082B02D1029B002B07D16FF003010798DF
:10493000FEF750FD6FF00303A4E0079B5B78002BAC
:1049400007D16FF002010798FEF744FD6FF00203F4
:1049500098E00798FFF7F2FC0690069B002B25D005
:1049600006990798FFF716FD069B03F10C01079BBC
:104970005B6A1A46029807F0A3FB019B002B03D049
:10498000069BDA78019B1A7002990798FEF73BFFA5
:10499000069B00225A70079B0C3306991846FFF7B6
:1049A00005FC079B9B68002B6BD029E0009B002B2C
:1049B0001FD0009A02990798FEF719FFFFF76CFCC9
:1049C00003461946079801F05DFA0099832001F02B
:1049D00035FDEFF309831C4623460593059B0833F9
:1049E000029A1A60059B0C33019A1A606FF001035A
:1049F00048E002990798FEF70CFF6FF0020341E0D0
:104A0000079B9B685B78932B3BD1079B0C33184625
:104A1000FFF7A1FB0690069B002B32D0079801F010
:104A200063FA049001220021049801F0E3FC049849
:104A300001F024FC0590069B03F10C00059B083354
:104A40001B681946079B5B6A1A4607F039FB069BF1
:104A500007221A70069B01225A70069B00229A7048
:104A6000059B0C331B68DAB2069BDA70069907982F
:104A7000FFF718FC059B08331B6819460798FEF7DB
:104A8000A2FE0023184608B010BD00B589B00390FF
:104A90000291009313468DF80730039B0793079B01
:104AA000002B09D0079B1B78082B05D1029B002BFC
:104AB00002D0009B002B07D06FF003010798FEF790
:104AC00089FC6FF0030345E0079B5B78002B07D15F
:104AD0006FF002010798FEF77DFC6FF0020339E0EA
:104AE000079B0C331846FFF736FB0690069B002BFE
:104AF0002AD0069B03F10C00079B5B6A1A460299B9
:104B000007F0DEFA069B07221A70069B01225A70F4
:104B1000069B00229A70069B9DF80720DA70069B80
:104B200004330593059B029A1A60069B083305938C
:104B3000059B079A1A60069801F0F8F80299079801
:104B4000FEF73BFE002305E002990798FEF741FEC1
:104B50006FF00203184609B05DF804FB00B589B098
:104B60000390029101920093039B0793079B002BF4
:104B700009D0079B1B78082B05D1029B002B02D084
:104B8000009B002B07D06FF003010798FEF722FC73
:104B90006FF0030337E0079B5B78002B07D16FF0C2
:104BA00002010798FEF716FC6FF002032BE007984E
:104BB000FFF7C4FB0690069B002B1ED0069B03F15B
:104BC0000C01079B5B6A1A46029807F079FA019B71
:104BD000002B03D0069BDA78019B1A700299079884
:104BE000FEF711FE069B0C330593059B079A1A608E
:104BF000069801F09BF8002305E002990798FEF75C
:104C000008FE6FF00203184609B05DF804FB0000CF
:104C100000B58BB0039002910192019A029903981A
:104C2000FEF7A9FDEFF305830993099B002B0BD138
:104C3000EFF310830893089B002B05D1EFF311834A
:104C40000793079B002B06D06FF005010020FEF7AD
:104C5000C1FB00231EE0039B0693029B0593019B6F
:104C6000049306980599049B1A460C4B9C46EFF357
:104C7000148313F0020F0AD113F0040FEFF308832B
:104C80000CBF203B683B23F0070383F3098800DF58
:104C9000034600BF18460BB05DF804FB71450008E1
:104CA00010B58CB003900291009313468DF8073035
:104CB0009DF80720009B02990398FEF768FDEFF32B
:104CC00005830B930B9B002B0BD1EFF310830A93FF
:104CD0000A9B002B05D1EFF311830993099B002B4D
:104CE00008D09DF80720009B02990398FFF7CDFE9E
:104CF000034616E0039B0893029B07939DF8073039
:104D00008DF81B30009B0593089B1846079B19469E
:104D10009DF81B301A46059B034CA44600DF034652
:104D200000BF18460CB010BD9947000810B58CB0F4
:104D30000390029101920093009B019A02990398BB
:104D4000FEF74DFDEFF305830B930B9B002B0BD16F
:104D5000EFF310830A930A9B002B05D1EFF3118325
:104D60000993099B002B07D0009B019A0299039895
:104D7000FFF7F4FE034613E0039B0893029B07939F
:104D8000019B0693009B0593089B1846079B1946B9
:104D9000069B1A46059B044CA44600DF034600BF51
:104DA00018460CB010BD00BF07490008014B5B69F5
:104DB00018467047A802002000B585B00190019BFD
:104DC000039332E0039B5B690193039BDB7803F061
:104DD0000803002B27D0039B00221A76002103989A
:104DE000FEF78AFC039B9B68002B1CD0039801F004
:104DF0007BF8029000220021029801F0FBFA039B4D
:104E0000029ADA60029BDA6A039B5A61039B0022D2
:104E10001A61029B039ADA62039B01221A7601212E
:104E20000398FEF759FC019B0393039B002BC9D108
:104E300000BF05B05DF804FB00B587B00190019B91
:104E4000002B26D0019B1B680293019B5B68049397
:104E5000019B9B680593059B002B0FD0059B03F0DE
:104E60000303002B03D1019BDB681B2B17D86FF0CA
:104E700008010020FEF786FA00235EE0019BDB6854
:104E8000002B0CD06FF008010020FEF77BFA002306
:104E900053E0002302930023049300230593059B12
:104EA000002B23D1274BD3F89430002B07D0254B70
:104EB000D3F894301846FFF74EF9059008E0214BDF
:104EC000D3F8803001221C211846FEF7DBFF059045
:104ED000059B002B06D16FF004010020FEF752FA6B
:104EE00000232AE001238DF80F3002E000238DF823
:104EF0000F30059B04221A70059B01225A70059BF6
:104F00009DF80F209A70049BDAB2059BDA70059B1E
:104F1000029A5A60059B00229A60059B0022DA6083
:104F2000059B00221A61059B00225A61059B002205
:104F30001A760598FEF7BAFB059B184607B05DF890
:104F400004FB00BFA802002000B585B001900091CD
:104F5000019B0393FFF72AFF0290029B002B07D1CE
:104F60006FF007010398FEF70DFA4FF0FF3395E05D
:104F7000039B002B03D0039B1B78042B07D06FF0FF
:104F800003010398FEF7FEF96FF0030386E0039B2D
:104F90005B78002B07D16FF002010398FEF7F2F95E
:104FA0006FF002037AE0039B1B7E002B1FD1039B53
:104FB000029ADA60029BDA6A039B5A61039B002221
:104FC0001A61029BDB6A002B03D0029BDB6A039A07
:104FD0001A61029B039ADA62039B01221A76039BF1
:104FE0001B7E19460398FEF777FB002356E0039BD0
:104FF000DB7803F00103002B1ED0039BDB68029AD1
:105000009A4219D1039B1B7EFF2B07D16FF00F0132
:105010000398FEF7B7F96FF002033FE0039B1B7E96
:105020000133DAB2039B1A76039B1B7E1946039861
:10503000FEF752FB002331E0009B002B29D0039B9D
:10504000DB7803F00203002B14D0039BDB6893F999
:105050002020029B93F920309A420BDA039BDB68F5
:10506000029A92F9202083F82020039BDB681846DF
:1050700000F066FF00990398FEF723FB029903985E
:1050800000F000FF0099532001F0D8F96FF0010300
:1050900004E00398FEF726FB6FF00203184605B004
:1050A0005DF804FB00B589B00190019B0593FFF703
:1050B0007DFE0490049B002B07D16FF0070105983B
:1050C000FEF760F94FF0FF33ADE0059B002B03D0F6
:1050D000059B1B78042B07D06FF003010598FEF7A2
:1050E00051F96FF003039EE0059B5B78002B07D11D
:1050F0006FF002010598FEF745F96FF0020392E0A8
:10510000059BDB68049A9A4207D06FF00D01059861
:10511000FEF738F96FF0020385E0059B1B7E002B3C
:1051200007D16FF00E010598FEF72CF96FF002031E
:1051300079E0059B1B7E013BDAB2059B1A76059B45
:105140001B7E19460598FEF7D7FA059B1B7E002BA0
:1051500001D0002367E0059B5B69002B04D0059B11
:105160005B69059A12691A61059B1B69002B05D0C2
:10517000059B1B69059A52695A6103E0059B5A69B0
:10518000049BDA62059BDB7803F00203002B25D039
:10519000049B93F821308DF81B30049BDB6A079346
:1051A00014E0079B9B68002B0DD0079B9B6893F92D
:1051B00020309DF91B209A4205DA079B9B6893F8E3
:1051C00020308DF81B30079B5B690793079B002BF2
:1051D000E7D1049B9DF81B2083F82020059B9B684A
:1051E000002B1CD0059800F07FFE039000220021C8
:1051F000039801F0FFF8059B039ADA60039BDA6AD3
:10520000059B5A61059B00221A61039B059ADA628D
:10521000059B01221A7601210598FEF75DFA002010
:1052200001F09CF80023184609B05DF804FB00006B
:1052300000B587B00190019B0393039B002B03D023
:10524000039B1B78042B07D06FF003010398FEF734
:1052500099F86FF0030395E0039B5B78002B07D16F
:105260006FF002010398FEF78DF86FF0020389E0FA
:10527000039B00225A70039B1B7E002B64D0039B70
:10528000DB680293039B5B69002B04D0039B5B6983
:10529000039A12691A61039B1B69002B05D0039BBB
:1052A0001B69039A52695A6103E0039B5A69029B86
:1052B000DA62039BDB7803F00203002B2FD0029B02
:1052C00093F821308DF81330029BDB6A059314E0CC
:1052D000059B9B68002B0DD0059B9B6893F92030A4
:1052E0009DF913209A4205DA059B9B6893F82030BC
:1052F0008DF81330059B5B690593059B002BE7D167
:10530000029B93F920309DF913209A4207D0029B0B
:105310009DF8132083F82020029800F011FE039BD3
:105320009B68002B0DD0039800F0DEFD0290002258
:105330006FF00201029801F05DF8039B9B68002B5F
:10534000F1D1002001F00AF8039B9B7803F00103E0
:10535000002B13D00D4BD3F89430002B07D00B4B00
:10536000D3F8943003991846FEF720FF06E0074B68
:10537000D3F8803003991846FEF7FCFD0398FEF73A
:10538000C6F90023184607B05DF804FBA802002008
:1053900000B587B001900198FEF783F9EFF305831C
:1053A0000593059B002B0BD1EFF310830493049B13
:1053B000002B05D1EFF311830393039B002B06D041
:1053C0006FF005010020FDF7DDFF002318E0019BD1
:1053D0000293029B18460C4B9C46EFF3148313F088
:1053E000020F0AD113F0040FEFF308830CBF203B28
:1053F000683B23F0070383F3098800DF034600BFFF
:10540000184607B05DF804FB394E000800B589B0B6
:105410000190009100990198FEF74DF9EFF3058393
:105420000793079B002B0BD1EFF310830693069B8A
:10543000002B05D1EFF311830593059B002B07D0BB
:105440006FF005010198FDF79DFF6FF005030BE07C
:10545000019B0493009B0393049B18460399044B00
:105460009C4600DF034600BF184609B05DF804FB08
:10547000494F000800B587B001900198FEF737F951
:10548000EFF305830593059B002B0BD1EFF31083FE
:105490000493049B002B05D1EFF311830393039B2B
:1054A000002B07D06FF005010198FDF76BFF6FF03F
:1054B000050308E0019B0293029B1846044B9C469F
:1054C00000DF034600BF184607B05DF804FB00BFCD
:1054D000A550000800B587B001900198FEF712F9B9
:1054E000EFF305830593059B002B0BD1EFF310839E
:1054F0000493049B002B05D1EFF311830393039BCB
:10550000002B07D06FF005010198FDF73BFF6FF00E
:10551000050308E0019B0293029B1846044B9C463E
:1055200000DF034600BF184607B05DF804FB00BF6C
:105530003152000810B483B001900B46ADF8023030
:10554000019BBDF80220D3E85F1F8A4202D8BFF357
:105550002F8F04E0481CC3E8540F04B1F3E78CB26A
:105560002346184603B05DF8044B704710B483B06F
:105570000190019BD3E85F2F12B9BFF32F8F04E096
:10558000511EC3E8501F00B1F4E794B223461846F9
:1055900003B05DF8044B704700B585B00190019BE6
:1055A0000C331846FFF7E2FF0346002B02D001231D
:1055B000039301E000230393039B184605B05DF8B5
:1055C00004FB00B585B00190019B03F10C02019B27
:1055D000DB8919461046FFF7ADFF03461A46019BCB
:1055E000DB899A4202D20123039301E00023039353
:1055F000039B184605B05DF804FB00B585B001902B
:10560000019B5B78002B16D0019B9B68002B13D06D
:105610000198FFF7C1FF0346002B0DD0019800F061
:1056200063FC039000220021039800F0E3FE019840
:10563000FEF783F800E000BF05B05DF804FB000052
:1056400000B589B0039002910192039B002B07D013
:10565000039BB3F5803F03D2029A039B9A4206D97B
:105660006FF003010020FDF7A1FE002373E0019B12
:10567000002B23D0019B1B680593019B9B6807931C
:10568000079B002B0FD0079B03F00303002B03D1D4
:10569000019BDB680F2B15D86FF008010020FDF788
:1056A00085FE002357E0019BDB68002B0AD06FF0DA
:1056B00008010020FDF77AFE00234CE0002305934B
:1056C00000230793079B002B23D1254BD3F8983059
:1056D000002B07D0224BD3F898301846FEF73BFD3D
:1056E000079008E01E4BD3F88030012210211846A5
:1056F000FEF7C8FB0790079B002B06D16FF0040153
:105700000020FDF753FE002325E001238DF81B3018
:1057100002E000238DF81B30079B05221A70079BBF
:1057200001225A70079B9DF81B209A70079B059ACF
:105730005A60079B00229A60029B9AB2079B9A814B
:10574000039B9AB2079BDA81054B064A9A66079833
:10575000FDF7E9FF079B184609B05DF804FB00BFA1
:10576000A8020020FB55000800B585B00190019B00
:105770000393039B002B03D0039B1B78052B07D0BF
:105780006FF003010398FDF711FE6FF0030331E0A2
:10579000039B5B78002B07D16FF002010398FDF7A4
:1057A00005FE6FF0020325E0039B9B68002B0FD0E2
:1057B0000398FDF7CCFF039800F096FB02900122BE
:1057C0000021029800F016FE0398FDF7B6FF10E0E6
:1057D0000398FFF7F6FE0346002B07D16FF0100188
:1057E0000398FDF7E3FD6FF0020303E00398FDF774
:1057F000AEFF0023184605B05DF804FB00B585B088
:105800000190019B0393039B002B03D0039B1B7808
:10581000052B07D06FF003010398FDF7C7FD6FF06C
:10582000030341E0039B5B78002B07D16FF002017B
:105830000398FDF7BBFD6FF0020335E0039B0022E8
:105840005A70039B9B68002B10D0039800F04CFB10
:10585000029000226FF00201029800F0CBFD039B42
:105860009B68002BF1D1002000F078FD039B9B7812
:1058700003F00103002B13D00D4BD3F89830002B0D
:1058800007D00B4BD3F8983003991846FEF78EFCDF
:1058900006E0074BD3F8803003991846FEF76AFB01
:1058A0000398FDF75EFF0023184605B05DF804FB82
:1058B000A802002000B585B00190019B0393039BD3
:1058C000002B03D0039B1B78052B07D06FF003013F
:1058D0000398FDF76BFD6FF0030320E0039B5B78FB
:1058E000002B07D16FF002010398FDF75FFD6FF009
:1058F000020314E00398FFF764FE0346002B07D071
:10590000039800F013FA0398FDF721FF002306E047
:105910006FF010010398FDF749FD6FF00203184680
:1059200005B05DF804FB000000B58BB00390029158
:105930000192019A02990398FDF7EEFEEFF30583B9
:105940000993099B002B0BD1EFF310830893089B5D
:10595000002B05D1EFF311830793079B002B06D093
:105960006FF005010020FDF721FD00231EE0039BE1
:105970000693029B0593019B049306980599049B4B
:105980001A460C4B9C46EFF3148313F0020F0AD116
:1059900013F0040FEFF308830CBF203B683B23F0A8
:1059A000070383F3098800DF034600BF18460BB0E6
:1059B0005DF804FB4156000800B587B001900198DE
:1059C000FDF7C0FEEFF305830593059B002B0BD17C
:1059D000EFF310830493049B002B05D1EFF31183A5
:1059E0000393039B002B04D00198FFF763FF03464A
:1059F00008E0019B0293029B1846044B9C4600DF83
:105A0000034600BF184607B05DF804FB695700085D
:105A100000B587B001900198FDF79EFEEFF3058376
:105A20000593059B002B0BD1EFF310830493049B8C
:105A3000002B05D1EFF311830393039B002B07D0B9
:105A40006FF005010198FDF7B1FC6FF0050308E068
:105A5000019B0293029B1846044B9C4600DF0346C1
:105A600000BF184607B05DF804FB00BFFD570008F3
:105A7000024B4FF080525A6000BF704700ED00E0CB
:105A800010B483B001900B46ADF80230019BBDF815
:105A90000220D3E85F1F8A4202D8BFF32F8F04E0B1
:105AA000481CC3E8540F04B1F3E78CB223461846F0
:105AB00003B05DF8044B704710B483B001900B46FF
:105AC000ADF80230019BBDF80220D3E85F1F481CEF
:105AD000824200D80020C3E8540F04B1F5E78CB22D
